:0400000002140B32A9
:03000B00020040B0
:0100130032BA
:01001B0032B2
:0300230002008A4E
:01002B0032A2
:030033000200E5E3
:10140B0075816012103AE582600302003B74004460
:10141B00006029744A2400F974143400FA90144AB9
:10142B00780075A000E493F2A308B8000205A0E5CC
:0F143B0082B501F1E583B502EC75A0FF02003B1D
:10003B001210E480FEC0E0C0F0C082C083C0D07557
:10004B00D008758A30758CF8E55524FFF555E556C3
:10005B0034FFF556E55734FFF557E55834FFF5589F
:10006B00E555700CE5567008E5577004E5586002CD
:10007B008002C28CD0D0D083D082D0F0D0E032C0FE
:10008B00E0C0F0C082C083C0D075D00830981FC3C9
:10009B00E55C94405016AA5C055CEA255B543F2452
:1000AB0000F582747D3400F583E599F0C2983099A0
:1000BB001EC29974012559543FF559155AE55A60DA
:1000CB000EE55924C0F582E4347CF583E0F599D034
:1000DB00D0D083D082D0F0D0E032C0E0C0F0C0826C
:1000EB00C083C0D075D008C2DDC2DCD0D0D083D0E5
:1000FB0082D0F0D0E032E58245836009A3E58245EA
:10010B0083000070F722AA82AB838A048B051ABA8C
:10011B00FF011BEC4D600890FE0D12010180EB22DC
:10012B00AA82BA0029C3E55A944050F9C2ACE55AE9
:10013B006015E55A2559543F24C0F582747C340070
:10014B00F583E55FF08003855F99055AD2AC22AA4F
:10015B0082BA0023E55C601FC2ACE55B2400F5822C
:10016B00E4347DF583E0FA7B007401255B543FF5A5
:10017B005B155CD2AC80047AFF7BFF8A828B832277
:10018B00AA82747F5AFBBB000E907FB4E0FB907F7A
:10019B00B474034BF08014BA0208907FC87403F058
:1001AB008009BA8206907FB87403F022AA825302A8
:1001BB007FBA000C907FB4E0FA907FB474024AF0DF
:1001CB0022AA82EA6005907FB5EAF0907FB4E0FA4C
:1001DB00907FB474024AF022AA82747F5AFBBB024E
:1001EB0037EA30E727907FBA7403F0907FB8740337
:1001FB00F0907FBBE4F0907FB9F0907FB9F0907FE7
:10020B00BA7402F0907FB87402F0800C907FC874BF
:10021B0002F0907FCA7402F022C2057A00C3740CFC
:10022B00952250030203E8E52225E0252290023CAB
:10023B00730202630202AB0202AB0202AB0202AB1D
:10024B000202B00202B3020343020348020391020B
:10025B0003E40203E60203E874805521FBBB801321
:10026B00741F5521FBBB000B907F007401F07A01CA
:10027B000203EA74805521FBBB8020741F5521FBC0
:10028B00BB01028008741F5521FBBB020E907F003F
:10029B00E4F0907F01F07A020203EAD2050203EA4E
:1002AB00D2050203EA0203EA74805521FBBB8002EC
:1002BB008003020328741F5521FBBB00028003023D
:1002CB000328AB287C008B047B00AD277E00ED421E
:1002DB0003EE42048B02E524B401067B527C1380AF
:1002EB003EE524B402067B647C138033E524B4031F
:1002FB0028C374049523401D75F002E523A424D86C
:10030B00F582E5F03413F583E493FDA3E493FE8DBE
:10031B00038E04800AD2058006D2058002D20530F6
:10032B0005030203EA8C057E00907FD4EDF0907FED
:10033B00D5EBF07A000203EAD2050203EA7480558A
:10034B0021FBBB803C74605521FBBB0034741F55F3
:10035B0021FBBB002CE52360028026E52460028094
:10036B0020E5256002801AE52660028014E52860EE
:10037B0002800EE4A20033FB907F00F0AA27020359
:10038B00EAD2050203EA74805521FBBB000280030D
:10039B000203E074605521FBBB003A741F5521FB2F
:1003AB00BB0032C3E5239402502BE5246002802569
:1003BB00E5256002801FE52660028019E5276002B3
:1003CB008013E5286002800DE52324FF9200907FC7
:1003DB00C9E4F0800AD205800680048002D2053081
:1003EB00050C758200C00212018BD00280058A8237
:1003FB001201CC22E52A252B252FFAE43530FB7888
:10040B009679107D00AE39AF3AC3EEF2EFF2EEF211
:10041B00EFF2EEF2EFF2EEF2EFF2EEF2EFF2EEF2CD
:10042B00EFF2EEF2EFF2EEF2EFF2E53DF2E53EF235
:10043B00EEF2EFF2EEF2EFF2EEF2EFF2EEF2EFF2AD
:10044B00EEF2EFF2EEF2EFF2EEF2EFF2EEF2EFF29D
:10045B00E53DF2E53EF2EA99FAEB9DFB50ACEFF28B
:10046B0022E54E24FFF550E54F34FFF551AA437BAF
:10047B0000EA2552F552EB3553F553AA43E52E60AE
:10048B000280047BDD80027BBE907F96EBF0907F39
:10049B0096E539F090FFFE120101DAE1E52A6001E1
:1004AB00142544FAE43545FB78967CFFA93DAD3E17
:1004BB00AE39AF3AEEF2EFF2E9F2EDF2EC2AFAECEA
:1004CB003BFB40F0EFF222E52B252FFAE43530FB16
:1004DB00EA9544FAEB9545FB4049EA9548FAEB95CA
:1004EB0049FB403F789679087C00AD3DAE39AF3A79
:1004FB00C3EEF2EFF2EEF2EFF2EEF2EFF2EEF2EF1C
:10050B00F2EDF2E53EF2EEF2EFF2EEF2EFF2EEF298
:10051B00EFF2EEF2EFF2EDF2E53EF2EA99FAEB9C36
:10052B00FB50CEC3E552954AE553954B4005120758
:10053B00EF800312046C22E52E700474018001E439
:10054B00FA60047BE380027B00907F98EBF0EA601B
:10055B0026907F9874C3F0907F96E539F0907F9644
:10056B0074CCF090FFFF120101907F96E539F0906B
:10057B007F9874E3F08018907F96E539F0907F9622
:10058B00743AF090FFFF120101907F96E539F0224B
:10059B00AA2C7B00E5312AFAE5323BFBAC2D7D0022
:1005AB00EC2AFAED3BFBE52E700474018001E4FCB0
:1005BB0060047D0C80027D08907F98EDF08A058B9E
:1005CB00061ABAFF011BED4E604FEC60047DDD8017
:1005DB00027DBE907F96EDF0907F96E539F090FF0F
:1005EB00FE120101EC60047DDD80027DBE907F96E2
:1005FB00EDF0907F96E539F090FFFE1201018A0530
:10060B00ED541F600280B6C002C003C0041203FF8A
:10061B00D004D003D0020205C8C0041203FFD004DB
:10062B00EC60047AE380027A00907F98EAF022AAC9
:10063B0082AB83740F552E5AFBE52EC4540FFC620C
:10064B0003BB0005740F552EFB74205A4203907F99
:10065B0096E539F0E52E60028021907F9874E7F0E3
:10066B00907F96749CF0907F967494F090FFFF129D
:10067B000101907F96749CF00206E5907F987410B0
:10068B00F0900000120101EB30E118907F9674B2EC
:10069B00F090FFFE120101907F96E539F09000007B
:1006AB00120101EB30E018907F9674AAF090FFFED8
:1006BB00120101907F96E539F0900000120101EBD9
:1006CB0020E50C907F9674BEF0907F96E539F09004
:1006DB007F98E4F090000012010122C203C204AA29
:1006EB00437B00EA24FFF552EB34FFF553E54C5402
:1006FB00606002800312059B854C82854D83120638
:10070B003AE52E700474018001E4FA60047B0C80DE
:10071B00027B08907F98EBF0E54C30E5030207CDA8
:10072B00AB2C7C00EA60047D0080027D01ED3395EB
:10073B00E0FEEBC39DFBEC9EFC8B058C068D078EC0
:10074B00001DBDFF011EEF486033EA60047FDD80B2
:10075B00027FBE907F96EFF0907F96E539F090FF89
:10076B00FE120101C002C003C004C005C006120383
:10077B00FFD006D005D004D003D00280C0AB46AC6E
:10078B00478B058C061BBBFF011CED4E6034EA60EA
:10079B00047DDD80027DBE907F96EDF0907F96E527
:1007AB0039F090FFFE1201018B05ED540F600280B2
:1007BB00D0C002C003C0041203FFD004D003D00288
:1007CB0080BF7A0C7B008A048B051ABAFF011BECE5
:1007DB004D600DC002C0031203FFD003D00280E6B0
:1007EB0012046C22E52E600280047AE380027A0008
:1007FB00907F98EAF0D20422C2AF7896E53DF2E5FD
:10080B003EF2AD39AE3AAF42EDF2EEF2DFFA78E3FB
:10081B00747EF2087400F2907F98799A7A1FAB502D
:10082B00AC510C800B78E5E3F2E540F0E36541F267
:10083B007896E53CF2E53DF2E53EF2E53BF01BAF89
:10084B0042EDF2EEF2DFFABBFF04DC02800FDAD5E9
:10085B0078E5E3F2E540F0E36541F2804278E5E3C9
:10086B00F2E540F0E36541F2C002D2AF1204D2D000
:10087B000230040978B97420C39A23F222C2AF78EC
:10088B0096E53DF2E53EF2AD39AE3AAF42EDF2EE12
:10089B00F2DFFA907F98799AAB50AC510CDA9178E1
:1008AB0096E53CF2E53DF2E53EF2E53BF01AE53A22
:1008BB00F2EA2BF550EA1C3CF55155502402FA781C
:1008CB00E5E3F2E540F0E36541F278B97440F2DA22
:1008DB00031204D2D2AF22C28CE4F558F557F55669
:1008EB00F555C203D20412059B120542227539BA83
:1008FB00753AFA753CF8753DFA753EDA753B2C7511
:10090B003F28754008754100747F5529FABA0502D6
:10091B008014BA09028018BA45028049BA4702808E
:10092B0032BA494180367A00752E20C202803D7A58
:10093B00017539FC753AFE753C7E753DFA753EDEE8
:10094B00753B04753F0C75401C754180752E00C2BC
:10095B000280197A03752E03D20280107A04752E49
:10096B0003D20280077A02752E03D202EA90131685
:10097B0093F52AEA90131B93F52B75F002EAA4FB6F
:10098B00ACF0EB242AF582EC3413F583E493F52FCA
:10099B00A3E493F530EA90132093F52CEA901325FA
:1009AB0093F52DEB2434F582EC3413F583E493F5B6
:1009BB0031A3E493F532EB243EF582EC3413F5834B
:1009CB00E493F533A3E493F534EB2448F582EC344C
:1009DB0013F583E493F535A3E493F536E52930E776
:1009EB00047A0180027A00EA24FF9201300111E5BA
:1009FB002C30E0067AB67B0580047AB57B06800442
:100A0B007AFF7B0F8A378B3822AA82AB837C00203C
:100A1B000003021035C3740E95225003020FFBE541
:100A2B002225E02522900A3473020A61020AC102D0
:100A3B000B12020BA5020C94020CC1020CDB020C74
:100A4B00FF020DE0020EC3020EC6020F0C020F6274
:100A5B00020F65020FA4907FB8E0FD20E1F87480CF
:100A6B005521FDBD0038E5276034C37440952750F0
:100A7B00037527407D008D06C3EE9527E433FE8D6D
:100A8B0004EE6028ED24C0FEE4347DFFED2AF582F0
:100A9B00E43BF583E0F88E828F83F00D80D8907D58
:100AAB00C0E523F0907DC1E524F07C02907FB9EC8A
:100ABB00F07C00021037E52354606003021037749A
:100ACB000F552E55236017AD237E008D828E83C06C
:100ADB0002C003C00412063AD004D003D002C002F5
:100AEB00C003C00412059BD004D003D002E5233011
:100AFB00E303021037C002C003C004120542D00446
:100B0B00D003D002021037200416C28C758282C02B
:100B1B0002C003C0041201E3D004D003D002D204FC
:100B2B00C203740A2AF582E43BF583E0F555A3E092
:100B3B00F556A3E0F557A3E0F558C28CE5235460B6
:100B4B0060028042740F552E55236017AD237E0033
:100B5B008D828E83C002C003C00412063AD004D02B
:100B6B0003D002C002C003C00412059BD004D00303
:100B7B00D002E52320E30FC002C003C004120542DC
:100B8B00D004D003D002E555455645574558600A69
:100B9B00D203758A30758CF8D28C200418C28C75F0
:100BAB008282C002C003C0041201E3D004D003D080
:100BBB0002C203D204AD247E008D067D00AF2378E4
:100BCB0000ED4FF54CEE48F54D8525548A828B830D
:100BDB00E0F544A3E0F54574022AF582E43BF58386
:100BEB00E0F546A3E0F54774042AF582E43BF58370
:100BFB00E0F548A3E0F54974062AF582E43BF5835A
:100C0B00E0F54AA3E0F54B74082AF582E43BF58343
:100C1B00E0F54274092AF582E43BF583E0F543E500
:100C2B004260028003754201E54360028003754315
:100C3B000185425F756000854882854983C002C08B
:100C4B0003C0041213E2E5828583F0D004D003D0F5
:100C5B0002F54E85F04FE54E454F7006E4F54F75A6
:100C6B004E01300303021037C002C003C00412064A
:100C7B00E6D004D003D002C002C003C004120803A4
:100C8B00D004D003D0020210378A828B83E0F55553
:100C9B00A3E0F556A3E0F557A3E0F558E555455607
:100CAB0045574558600B758A30758CF8D28C0210FD
:100CBB0037C28C021037855D82855E83E555F0A3C4
:100CCB00E556F0A3E557F0A3E558F07C0402103786
:100CDB00758282C002C003C0041201E3D004D003AA
:100CEB00D002C002C003C0041208E2D004D003D06B
:100CFB00020210378A828B83E0F52A74012AF5826F
:100D0B00E43BF583E0F52B74022AF582E43BF58393
:100D1B00E0F52FA3E0F53074042AF582E43BF5836C
:100D2B00E0F52C74052AF582E43BF583E0F52D7490
:100D3B00062AF582E43BF583E0F531A3E0F5327446
:100D4B00082AF582E43BF583E0F533A3E0F5347430
:100D5B000A2AF582E43BF583E0F535A3E0F536741A
:100D6B000C2AF582E43BF583E0F537A3E0F5382058
:100D7B00022BC374E8952F740395305020752E0009
:100D8B007539FC753AFE753C7E753DFA753EDE7520
:100D9B003B04753F0C75401C754180802630020466
:100DAB007D0380027D208D2E7539BA753AFA753C1C
:100DBB00F8753DFA753EDA753B2C753F2875400882
:100DCB00754100C002C003C0041208E2D004D00376
:100DDB00D002021037AD5DAE5E8D828E83E52AF0B8
:100DEB0074012DF582E43EF583E52BF074022DF5AD
:100DFB0082E43EF583AF2FEFF074032DF582E43ED2
:100E0B00F583AF307800EFF074042DF582E43EF5F6
:100E1B0083E52CF074052DF582E43EF583E52DF08A
:100E2B0074062DF582E43EF583AF31EFF074072D98
:100E3B00F582E43EF583AF327800EFF074082DF5C0
:100E4B0082E43EF583AF33EFF074092DF582E43E77
:100E5B00F583AF347800EFF0740A2DF582E43EF59C
:100E6B0083AF35EFF0740B2DF582E43EF583AF368F
:100E7B007800EFF0740C2DF582E43EF583AF37EF7D
:100E8B00F0740D2DF582E43EF583AF387800EFF06A
:100E9B00740E2DF582E43EF5837410F0740F2DF56E
:100EAB0082E43EF5837401F074102DF582E43EF577
:100EBB0083E4F07C11021037021037C3744095277E
:100ECB0050037527407D008D06C3EE95275024ED0A
:100EDB002AF582E43BF583E0F55F852582C002C0ED
:100EEB0003C004C00512012BD005D004D003D002DF
:100EFB000D80D4E523B40104E55A70FC7C0002108C
:100F0B0037E528600575273F800FC3E527943F50D1
:100F1B0004AA2780027A3F8A277A008A03C3EB95BB
:100F2B0027E433FB8A04EB7003021037EA255DFBE1
:100F3B00E4355EFD852582C002C003C004C00512E6
:100F4B00015AAE82AF83D005D004D003D0028B827E
:100F5B008D83EEF00A80C4021037E5256002801FF6
:100F6B00E523600280087440C3955AFC8007E52393
:100F7B00B40102AC5C855D82855E83ECF0800885F4
:100F8B005D82855E83E4F07401255DF582E4355E58
:100F9B00F583E4F07C0202103774805521FABA0015
:100FAB0013E5276002800D852329C0041208F8D0B1
:100FBB000402103774805521FABA800280030210A4
:100FCB0037E527B402028003021037AA5DAB5E8AB5
:100FDB00828B83E529F00ABA00010BE529B4FF04E3
:100FEB007DFF80027D008A828B83EDF07C02803C4A
:100FFB00E522B4FF31AA5DAB5E8A828B837401F06C
:10100B0074012AF582E43BF583E4F074022AF5823D
:10101B00E43BF5837401F074032AF582E43BF5831A
:10102B00E4F07C0480067CFF80027CFF8C822290A3
:10103B000001120111907FD67408F09003E81201A1
:10104B0011907FD67406F0907F93E4F0907F9C74A0
:10105B00FFF0907F94E4F0907F9DF0907F95740368
:10106B00F0907F9E74FEF0758800758780758E10EA
:10107B00759850758921758CF8758A30758DD97571
:10108B008B00D28E907FDD7409F0907FAC7405F0ED
:10109B00907FAD7405F0907FAE7419F0907FB1E442
:1010AB00F0907FAFF075B80175E80075A892759256
:1010BB007F758600C2007529491208F8E4F558F5CA
:1010CB0057F556F555C203D204755900755A00757C
:1010DB005B00755C0075820022E59120E40302122F
:1010EB00F37591EF907FA8E0FA0303543FFAC374B2
:1010FB000B9A40E5EA25E02A9011077302112B02A7
:10110B0011D30211DC0211E50211FA02122A0212AA
:10111B003302123C02124502124E02125702127D8A
:10112B00907FAB7401F0907FE878217908E0F6A30B
:10113B0008D9FA74805521FABA0031E528452760A1
:10114B002B907FC5E4F07AC88A031A8A04EB6010EF
:10115B00907FB4E0FB30E30890FFCF12010180E8F1
:10116B00BCFF0975820012018B0210E474605521DB
:10117B00FABA4035741F5521FABA002D755D00750A
:10118B005E7F907EC0120A14AA828A03EA30E70DB2
:10119B00758200C00312018BD0030210E48B82C056
:1011AB00031201CCD0030210E474605521FABA008B
:1011BB000AC003120224D0030210E4758200C0039C
:1011CB0012018BD0030210E4907FAB7402F002107B
:1011DB00E4907FAB7404F00210E4907FAB7408F0E2
:1011EB00C2DCD2DD5387FE000000C2DD0210E490AA
:1011FB007FAB7410F0C200C203D204E52E600280F4
:10120B00047AE380027A00907F98EAF0907F96E56B
:10121B0039F0758282C0031201E3D0030210E4900F
:10122B007FAB7420F00210E4907FA97401F00210E0
:10123B00E4907FAA7401F00210E4907FA97402F08D
:10124B000210E4907FAA7402F00210E4907FA9745C
:10125B0004F020000D758282C00312018BD00302B3
:10126B0010E43004030210E4C003120803D003029D
:10127B0010E4907FAA7404F030000A907FC9E0FA62
:10128B00BA0800500D758202C00312018BD0030205
:10129B0010E4907DC078217908E0F6A308D9FA9084
:1012AB007FB8E0FA20E1F8755D00755E7E907DC831
:1012BB00C003120A14AA82D0038A03EA30E70D7521
:1012CB008202C00312018BD0030210E4907FC9E4A9
:1012DB00F0C374808BF063F08095F040030210E450
:1012EB00907FB9EBF00210E42003030210E4E55504
:1012FB00700CE5567008E5577004E5586003021052
:10130B00E41206E61208030210E422121E17191942
:10131B0014381E2828070208070701010101019450
:10132B00021405F401F002F002EE01060422012280
:10133B000122016607B306CC099908990B6607B31E
:10134B0006990C991066161201100100000040441A
:10135B0044204200000102000109022000010103A8
:10136B0080640904010002FF0000040705820240AB
:10137B000000070502024000000403090422035386
:10138B00007400610072006C0069006700680074F3
:10139B000020005800700072006500730073000C91
:1013AB00034500430048004F003200100342006C1D
:1013BB00006F0063006B0049004F00120342006C8A
:1013CB00006F0063006B0049004F003000841388EE
:1013DB0013AA13B613C6137A10E4FBFCE58225E0BF
:1013EB00F582E58333F583EB33FBEC33FCEB955F55
:1013FB00F5F0EC95604006FCABF0438201DADD22A0
:00000001FF
