:0300000002130DDB
:03004300021200A6
:101200000212850002127300021227000212390036
:1012100002123300021227000212520002122700AB
:101220000212270002122712122A80FEE591C2E460
:10123000F59122121941512C32E5874401F58700BE
:101240000000512C32C2DC32F54485D045D2D305A2
:1012500086225148E54860098546838547821212F7
:10126000D49001A9512C747FC583F0E5448545D005
:101270000586325148D55408755404740012171469
:101280009002AB80DF5148754800907FE878497F35
:1012900008E0F6A308DFFA121880200126300216B3
:1012A000200324907F0178427F02E6F0158218DF48
:1012B000F9E6907FB5F07F02907FB4E04FF09001A7
:1012C000AB80A17F0380F1FFE5507007C3954FE528
:1012D0004F5001EFFF754800C394404016F5487F1A
:1012E00040C083C082EF1218C4858346858247D0F0
:1012F00082D083EFFE7800E0F2A308DEFAEF80B23E
:10130000907FC5F0907FB4E0540870FB2274FFF822
:10131000F6D8FD7581DF75927F75860178D6E25427
:10132000F3F21216A6E24406F2E4F520F554E58E37
:1013300054F8F58E7893799CE4F2F4F3E40809F21A
:10134000F3080974C3F274FEF378DD7409F2E589D9
:0C13500054F004F589C28C740178ACF2F2
:10135C0008E4F2087403F2087401F275E80175A848
:10136C0090717680FC2275F00022755500E5F02016
:10137C00E10D20E20420E3042202149C02159BE4FC
:10138C0078ACF275E800E5634564604E12181712EC
:10139C00174DAB64AA637562047561F87400D5616E
:1013AC00FB7561F8D562F51AEA600280E9EB60051D
:1013BC007AFF1B80E1E559600914600C14600F146E
:1013CC00601212176F0213E61217B50213E612170A
:1013DC00E60213E61217E61217B5907F987408F020
:1013EC00907F967CBA7BFA7F0A7DC8ECF0EBF0EC30
:1013FC00F0EBF0ECF0EBECF0EBECF0EBF0F0F0DD14
:10140C00EADFE6755D957C027EFA7D0D907F967421
:10141C00BAF074BEF074BAF07F05907F96DFFB785B
:10142C00E3747EF279B8E320E1FC78E47400F2080E
:10143C0079987F2074FAF074BAF074FAF074BAF0F8
:10144C0074FAF0907F9674F8F0EEF0740CF3740864
:10145C00F374DAF074FAF0EBF2EAF2907F9AE0FAB5
:10146C007428F3E0FB907F96DFCA78B97440F2DD04
:10147C00B3D55D96755D95DC9179B8E320E1FC748C
:10148C0000907F98F0740178ACF275E801C2F122FB
:04149C00E478ACF252
:1014A00075E800E5634564602C12181712174DAB00
:1014B00064AA637562047561F87400D561FB756197
:1014C000F8D562F51AEA600280E9EB60057AFF1B45
:1014D00080E112176FAA5912182C907F987408F0A7
:1014E000755D80907F9674BAF074BEF074BAF07F28
:1014F00005907F96DFFB7BDA7CBA7DF87EFAAF57EA
:10150000ECF0EEF0ECF0EEF0ECF0EEF0EBF0DFF003
:10151000755E0478E3747EF279B8E320E1FC78E448
:101520007400F20879987F2074DAF074FAF074BAD3
:10153000F074FAF074F8F0EEF0740CF37408F3EB56
:10154000F2EAF2907F9A907F9A907F9AE0FA74285C
:10155000F3E0FB907F96DFD078B97440F2D55EB8A7
:1015600079B8E320E1FC7BDA7CBA7DF87EFAAF58EB
:10157000ECF0EEF0ECF0EEF0ECF0EEF0EBF0DFF093
:10158000D55D16AA5A7400907F98F012182C740139
:1015900078ACF275E801C2F22281E3E478ACF2752E
:1015A000E800E5634564604E12181712174DAB64EE
:1015B000AA63756004755FF87400D55FFB755FF80A
:1015C000D560F51AEA600280E9EB60057AFF1B80BE
:1015D000E1E559600914600C14600F1460121217D1
:0415E0006F0215F68B
:1015E4001217B50215F61217E60215F61217E612CF
:1015F40017B5907F987408F07CBA7BFA907F967F39
:101604000A7DC8ECF0EBF0ECF0EBF0ECF0EBF0EC76
:10161400F0EBF0ECF0EBF0DDEADFE6755D957C02D3
:101624007EFA7D1A907F9674BAF074BEF074BAF0A4
:101634007F05907F96DFFB78E3747EF279B8E32030
:10164400E1FC78E47400F20879987F2074DAF0748D
:10165400FAF074BAF074FAF074F8F0EEF0740CF373
:101664007408F3EBF2EAF2907F9A907F9A907F9A53
:10167400E0FA7428F3E0FB907F96DFD078B97440E9
:10168400F2DDB9D55D9C755D95DC9779B8E320E111
:10169400FC7400907F98F0740178ACF275E801C294
:1016A400F3227E0A7F6490FB50A3E584458570F99C
:1016B400DFF4DEF022907EC0E0A314605314700BBC
:1016C400E0F555A3E0F5561217212214700C908012
:1016D400007E3F7497F0A3DEFC22E0F563A3E0F5FF
:1016E40064A3E0F559A3E0F55AA3E0F557A3E0F5A8
:1016F40058A3E0F55B600914600B14600D02171326
:10170400D2F1021713D2F2021713D2F302171322E3
:05171400E55C907E8001
:10171900F0907FB77401F022E55514602714601723
:1017290014604314600B14600B14601114600B22D5
:10173900220217B50217E60218170218247400903E
:101749007F98F02275550074BA907F96F0743AF03C
:10175900907F96907F96907F96907F9674BAF0745A
:1017690000907F98F0227555007418907F98F07456
:10177900BA907F96F074AAF0907F96907F96907FAA
:1017890096907F9674BAF0907F9674B2F0907F9697
:10179900907F96907F96907F9674BAF074BEF0749D
:1017A90008907F98F0907F9674BAF022755500746E
:1017B90018907F98F074BA907F96F074AAF0907F91
:1017C90096907F96907F96907F9674BAF074BEF04B
:1017D9007408907F98F0907F9674BAF0227555003E
:1017E9007418907F98F074BA907F96F074B2F09064
:1017F9007F96907F96907F96907F9674BAF074BE8C
:10180900F07408907F98F0907F9674BAF02275551D
:10181900007AFF12182C7A6412182C755500AA56F2
:101829007556007BFA7CBA7F0A907F96ECF074BEFD
:10183900F0ECF07E04907F96DEFB1AEA601ADFEC8A
:101849007F0A7DC8ECF0EBF0ECF0EBF0ECF0EBF09C
:10185900ECF0EBF0DDEE80D47F0A7DC8ECF0EBF024
:02186900ECF0A1
:10186B00EBF0ECF0EBF0ECF0EBF0DDEEDFEA907F81
:05187B00987400F0224A
:10188000E549A2E79202545C7036E549A2E082E1A4
:10189000402E30E50274035403C4FFE54A54F0704F
:1018A0001FE54A540F4F754001754100754200C253
:1018B00004C201C2039018CD1218C4E090190D7330
:1018C000D20122E02582F58250020583221D00000C
:1018D0000000033B0019250000000000002100006B
:1018E0000000006200000000000000000021000075
:1018F00000000000000000000000000000000F00D9
:1019000000000000000006000000000000D20122DC
:10191000D204223000F71213000216B93000EE9004
:101920007F9AE0F5412285434122754101227540AD
:101930000222E54B600B1470D4D2007543010213F0
:1019400071C200F543021372D203E54C149019885A
:1019500060311490199A70037439221470AF901981
:10196000F1E54B601EFF11C3E060A2EF1480F4D2DA
:1019700003E54CC394219019AC6008149019D3600E
:0819800004808AE022741E229B
:101988001201100100000040424220420001010201
:10199800000109023900020103801909040000014D
:1019A80003000004092100010001221E000705812F
:1019B8000340000A0904010002FF00000507058230
:1019C80002400000070502024000000600FF09016E
:1019D800A101190129081580257F75089501810243
:1019E8001901290895089102C0040309042C03551C
:1019F800005300420020004400650073006900673E
:101A0800006E002000420079002000450078006147
:101A1800006D0070006C0065000C03450043004831
:101A2800004F0031001E0348004900440077006958
:101A3800007400680042006C006F0063006B00498E
:101A4800004F000803480049004400100342006C9E
:0C1A5800006F0063006B0049004F0000AD
:00000001FF
