:061AF900000000D8FB22F2
:051B0500EFF8021AF9DF
:061AFF00F07814021AF950
:1018E600908000E521D2E0121AFF6403121AFF6409
:0B18F60003121AFFDFEFC2E0021AFF2E
:10111B00C242EE2F604A0ED3121936303A0090803D
:10112B0000E521203A05D2E0121AFF6403121AFFE0
:10113B006403121AFF203A05C2E0121AFFEFBE0138
:10114B0005C3940440045CB40112C3121936A930D0
:10115B007840121AF9D9F9DFBEDEBC22DFC3DEC13B
:07116B00908002E523F02251
:10181F00EE2F601E0E908000E521D2E0121AFF64B9
:10182F0003121AFF6403121AFFC2E0121AFFDFEA53
:03183F00DEE822BE
:1016EC00A242923EC242120F8BEE2F60140E9080DB
:1016FC0000E5216403121AFF6403121AFFDFF4DE03
:0B170C00F2121A1BC239A23E924222C8
:101A1B00E523908002D2E4F07828121AF9C2E4F0A0
:051A2B007828021AF901
:100F8B00D3121936908000E521D2E1F07817121AAE
:100F9B00F9204B25C2E0C2AFF0E523908002C2E0FE
:100FAB00F0D2AF780C121AF9D2E0C2AFF0908000F9
:100FBB00E521D2E1F0D2AF8023D231E5269080102B
:100FCB00F0E523908002D2E1F0780C121AF9C2E11D
:100FDB00F0C231E526908010F09080007812121A42
:0A0FEB00F9E521F0D239C3021936EE
:101A5800908000E5216403121AFF6403121AFFDF65
:021A6800F42266
:0C1AD900908003E524C2E6F0D2E6F02283
:10193600E5254004D2E68002C2E6908004F0F52553
:081946004001227805021AF9A4
:100D2100907DC1E054F0B4F0061212A9020DA3B4F3
:100D31000005120DAA806BB410051215968063B4DC
:100D41002005121346805BB430051217B38053B4EB
:100D51004005121864804BB45005120F1F8043B434
:100D61006005121A7C803BB470051211C78033B440
:100D71008005120FF5802BB49005120E328023B43A
:100D8100A005121AAE801BB4B0051215228013B44F
:100D9100C005121901800BB4D0051219018003128C
:090DA1000EAE907FC97400F0222F
:051B0A0074060219033E
:051B0F0074150219032A
:101901007418C250753400901B4B85833185823227
:0B191100F0A37400F0F52C752D0122EE
:10184200C250753400901B4B85833185823274A55A
:10185200F0A3E516F0540F240354FE03F52D752C66
:02186200002262
:101A7C00901B4D7462F5167402F0A37436F00218C4
:011A8C004217
:101A6A00121B14901B4D74E2F516EEF0A3EFF00270
:021A7A00184210
:1012A900A3E0A3B40303021394B40A03021392B490
:1012B9000003021A8DB40103021394B4020302134A
:1012C90096B40403021717B405030212F9B406030E
:1012D900021172B407030215FEB40805E0FF021AF1
:1012E90045B4090BE0FFA3E0FD121420021B0A22FA
:101A4500121662901B4D74F2F5167408F0A3EFF0B0
:031A550002184232
:101A8D00121767E0F511FEA3E0F512FF050A021B20
:011A9D000A3E
:10139200050A050A121767E0FEF511A3E0FFF51230
:1013A200C3E51D9420E51C9400500A204807E4B5CB
:1013B2000A03021901D250907DC2E0B403028003F5
:1013C200B40A0F7C00907DC7E0FD14250AF50A12CD
:0713D20010BB8E2C8F2D22B1
:101717007400F50AE51C451D601B30480F908000DA
:1017270078007900E030E104D8FAD9F8121AD975AF
:081737001C00751D00021B0AD5
:1012F900121767E0FCA3E0FDA3E0F8A3E0F9A3E07F
:10130900FAA3E0FB901B4AECF0E525D2E1D2E0BC60
:101319000306C2E0D2E18007BC0204C2E1D2E0F5D3
:1013290025908004F0901B47EDF0901B48E8F0A34E
:0D133900E9F0901B45EAF0A3EBF0021B0A5F
:1015FE00907DC6E0FEA3E0FF907DC3E0B4000D3009
:10160E003A051216EC801012181F800B3038051296
:10161E001A05800312173FD230E526908010F00293
:02162E001B0A95
:10117200C230E526908010F0907DC4E0FF7E00A38F
:10118200A3A3E0FCA3E0FD1210BB907DC3E0B4007A
:1011920020303A08203905C242120F8B7C07907D1D
:1011A200C1E0907DC9540FB40802E0FC12111B800B
:1011B2001130380B203C031215CA12178E8003120D
:0511C200173F021B0AAB
:10176700907DC3E0B40009204A19D24A7D40800722
:10177700304A10C24A7D207F101214207DD87F0086
:07178700121420907DC42222
:100EAE00A3E0A3C3B400028038B401028011B402DF
:100EBE0002802FB403028008B40403021A6A22D3FC
:100ECE00120F14907DC6500CE584F8E0A3F608DFEF
:100EDE00FA021B0AE0A30586F0A30586DFF6021BC5
:100EEE000AD3120F14901B4D7516E8500CE584F8BA
:100EFE00E608F0A3DFFA0218420586E0A30586F0A5
:100F0E00A3DFF6021842E0FFA3E0F584A3E0F58527
:010F1E0022B0
:10169300907F98E0C2E3F0C2E5F0F879C77B027A65
:1016A30008E933F9E8C2E45002D2E4F0D2E3F0C22D
:0D16B300E3F0DAEDEFF9DBE7E8D2E5F02235
:1013D900907F98E0C2E3F0C2E5F0FB79A77A08E9CB
:1013E90033F9EBC2E45002D2E4F0D2E3F0C2E3F005
:1013F900DAED7828000000D8FB7A087F00907F9BFF
:10140900E0C372E2EF33FF907F98EBD2E3F0C2E3DF
:07141900F0DAEAD2E5F0224F
:10142000C2AF907F98E0D2E3F0908003E524D2E44D
:10143000F0F524EFF9907F98E0F87B027A08E93321
:10144000F9E8C2E45002D2E4F0C2E3F0D2E3F0DA09
:10145000EDEDF9DBE7908003E524C2E4F0F524D25A
:02146000AF22B9
:10146200C2AFE520907F97FA7809EAC2E6F0791ECA
:10147200D9FEEAD2E6F0D3EF00007907D9FE33CAEB
:101482004008C2E6F0CAD8F28006D2E6F0CAD8EA2C
:10149200D2AF907F997A03E030E105D8FADAF8C347
:0114A2002227
:1014E400908006E4F0A3740AF0908008E4F0A374FA
:1014F40009F090800AE4F0A304F0D22E908004E571
:1015040025F0D22FE525F085130C908000E030E122
:0E1514000AC3E513950CD3940A40EF021AD9CE
:10166200907F96E020E0047E0180027E008E0CEFE7
:101672006009907F96E054FEF0800B907F96E044E4
:1016820001F0A23A9242E50C70047F0180027F00D1
:011692002235
:100DAA00C246907DC5E0540CF50CE030E42E907DEF
:100DBA00C3E0F539A3E0F53CC240A3E05403600266
:100DCA00D240E53854F34404F538D24CE50C70436C
:100DDA00C24CE53854F34408F5388037907DC2E0B8
:100DEA00F50BA3E0F510A3E0F517E53854FC440130
:100DFA00F538D24EE50C700AC24EE53854FC44026E
:100E0A00F538A23A9242303A0AAF13EF651360FB03
:100E1A00121A1BE50CB40403121630E50CB40803CD
:080E2A0012155CD246021B0AFE
:10159600C246907DC2E030E014E538540C6020531A
:1015A60038F3304C1A12155C43380C8012E5385467
:1015B60003600C5338FC304E0612155C433803D2D8
:0415C60046021B0AB4
:10134600C2AF907DC2E030E407E0A2E39258803756
:10135600C258C253907DC3E0901B5BF0907DC2E003
:1013660030E10BA3E0F53AE4901B43F08019907D41
:10137600C2E030E00CD253907DC4E0901B43F08075
:0C13860006901B437401F0D2AF021B0A5A
:1017B300E4901B4DF030530204F0901B5BE0901B50
:1017C3004EF0A3E515F0A37480F0A3E53AF0751687
:0417D3003502184281
:10186400C2AF907DC2E0F50DA3E0F508A3E0F50E4C
:10187400A3E0F509C251A3E030E002D251D2AF0295
:021884001B0A3D
:100F1F00121B0AC2AF907DC2E0F50C7F02C28E9009
:100F2F007DC4E0F4F58B907DC3E0F4F58DE5895435
:100F3F000F4410F58953883FC28FC206907F97E503
:100F4F0020F0D28E308FFDDFD47F02D206907F97B4
:100F5F00E520F0C28E907DC6E0F4F58B907DC5E064
:100F6F00F4F58DC28FD28E308FFDDFDFD50CACE55F
:0B0F7F0089540F4430F589C28ED2AFB8
:010F8A002244
:1011C700907DC2E02410547FF50CE030E715907D48
:1011D700C4E0FFAD0C1217FB901B4DEFF0751671B5
:1011E700021842907DC4E0FF907DC3E0FBAD0C1276
:0611F700000E121B0A228B
:100FF500121B0A907DC2E0FFC454C0F516E4F53516
:10100500E516B44004D2058015E5167004C20580C6
:101015000DE516B4800575353F800375350FE53848
:10102500543F4516F538C204907DC2E030E402D243
:1010350004907F97E520F0907DC2E05403F516B447
:101045000103121630E516B4020312155CE516B459
:061055000303120C9322BC
:100E3200C2AFE53854CF901B4DF0305604E0441059
:100E4200F0305507901B4DE04420F0305407901BC2
:100E52004DE04430F0A204E433901B4EF0304504E0
:100E6200E04402F0907F99E020E107901B4EE044BD
:100E720004F0E50D6007901B4EE04410F0E50860B9
:100E820007901B4EE04420F0E50E6007901B4EE0F9
:100E92004440F0E5096007901B4EE04480F0901B4F
:0C0EA2004FE52FF0D2AF751693021842F6
:10152200907DC2E0F50CE4F516F50C907DC2E0FF6B
:10153200E50CC39F501874C3250CF582E4347DF585
:1015420083E0FF12146250020516050C80DD901B29
:0A1552004DE516F07516B1021842BF
:0F1AAE00121B0AC23D907DC2E030E002D23D2201
:10105B001201000100000040970D01010100010287
:10106B00000109022000010100A000090400000298
:10107B00FF00000007058202400000070502024046
:10108B000000040309040A0353004200490047000F
:10109B001E035500530042002D00430041004D003C
:1010AB00200045006E00670069006E0065000000BF
:041B1D0001020408B5
:10051200901B661210EA00000000C25AC23BC2528F
:10052200C23F1208607E107F5B8E188F19751A10F9
:10053200751B6D751E10751F8DEE54E0700302065B
:1005420076901B6AE4F0A37480F0A3EEF0A3EFF0C0
:10055200C374B99FFF74109ECF2402CF3400FEE40F
:10056200FCFD901B621210DE901B5C1210EA000070
:100572000000901B62E0FCA3E0FDA3E0FEA3E0FF0D
:10058200901B5CE0F8A3E0F9A3E0FAA3E0FBC3123E
:1005920010CD503A901B5EE0FEA3E0FF901B6AE094
:1005A200FCA3E02FF582EC3EF58374CDF0901B5C4A
:1005B200E0FCA3E0FDA3E0FEA3E02401FFE43EFE95
:1005C200E43DFDE43CFC901B5C1210DE80A4901B19
:1005D2005C1210EA00000000901B62E0FCA3E0FD48
:1005E200A3E0FEA3E0FF901B5CE0F8A3E0F9A3E028
:1005F200FAA3E0FBC31210CD5049901B5EE0FEA3AC
:10060200E0FF901B6CE0FCA3E02FF582EC3EF5834B
:10061200E0FD901B6AE0FAA3E02FF582EA3EF58343
:10062200EDF0901B5CE0FCA3E0FDA3E0FEA3E02460
:1006320001FFE43EFEE43DFDE43CFC901B5C121035
:10064200DE8095901B6AE0F518A3E0F519745B242F
:1006520080FF741034FFFE901B60F0A3EFF0C3E53F
:100662001B9FF51BE51A9EF51AC3E51F9FF51FE5B3
:100672001E9EF51ED2E843D820907F95E044C0F03C
:10068200907FAFE04401F0907FAEE0441DF0907F98
:10069200ADE04404F0D2AF120727203F52203F05BD
:1006A200D25B121258901B661210EA000000007F03
:1006B200407E927D047C00901B66E0F8A3E0F9A3E3
:1006C200E0FAA3E0FBC31210CD50CF203FCC901B29
:1006D20066E0FCA3E0FDA3E0FEA3E02401FFE43E0C
:1006E200FEE43DFDE43CFC901B661210DE80C0E59A
:1006F2008E54F84401F58E303F051202F2C23F30AB
:100702005A12C25A1218A8203B07907FD6E020E75F
:10071200F312191C120BE0120BE0120BE0120BE0A9
:05072200120BE080D283
:1002F200907FE9E070030203D114700302044524E5
:10030200FE70030204B424FB70030203CB147003D7
:100312000203C51470030203B91470030203BF245D
:10032200056003020503907FEBE024FE6016146073
:100332004224027078E518907FD4F0E519907FD5B9
:10034200F002050A907FEAE0FF1214A3AA06A907A9
:100352007B018B3D8A3E893FEA49600DEE907FD456
:10036200F0EF907FD5F002050A907FB4E04401F0EF
:1003720002050A907FEAE0FF1216C0AA06A9077BCF
:10038200018B3D8A3E893FEA496018EE907FD4F0A6
:10039200EF907FD5F0E4907FB5F0907FB47402F0D7
:1003A20002050A907FB4E04401F002050A907FB48E
:1003B200E04401F002050A121ACB02050A121AF1F0
:1003C20002050A12000302050A121ABD02050A906A
:1003D2007FE8E0247F60241460312402705BA23B3A
:1003E200E433FF25E0FFA252E4334F907F00F0E4B4
:1003F200A3F0907FB57402F002050AE4907F00F04A
:10040200A3F0907FB57402F002050A907FECE0F44D
:100412005480FFC4540FFFE054072F25E024B4F5A5
:1004220082E4347FF583E05401907F00F0E4A3F08E
:10043200907FB57402F002050A907FB4E04401F0A7
:1004420002050A907FE8E024FE601D240260030298
:10045200050A907FEAE0B40105C23B02050A907FDB
:10046200B4E04401F002050A907FEAE0703B907F1D
:10047200ECE0F45480FFC4540FFFE054072F25E052
:1004820024B4F582E4347FF583E4F0907FECE05409
:1004920080FF131313541FFFE054072F907FD7F0F0
:0304A200E4F5403E
:1004A500E04420F0805F907FB4E04401F0805690F6
:1004B5007FE8E024FE60182402704A907FEAE0B4E9
:1004C5000104D23B803F907FB4E04401F080369038
:1004D5007FEAE07020907FECE0F45480FFC4540F75
:1004E500FFE054072F25E024B4F582E4347FF5833B
:1004F5007401F08010907FB4E04401F08007907F94
:0C050500B4E04401F0907FB4E04402F048
:0105110022C7
:03003300021B1994
:041B190053D8EF327C
:0D00360000170B0907070605090A0A0CFF51
:1017D700052E7E00E52E5403241DF582EE341BF5FD
:1017E70083E493FFE52454F0FEEF4EF52490800345
:0417F700E524F022D3
:100C9300753503C249D227908003E524F0E4F516A5
:100CA300F536752FFF7D64E516C39470504812170F
:100CB300D785130CC3E513950CC39D40F77D05E55C
:100CC300366013FF0536EFC3940340DBE52E20E0C7
:100CD300D6752F098020908000E0139256AF160539
:100CE30016EFC3940C40083043053056020536A274
:100CF30056B3924380B1532EFED256C243C255C25D
:100D0300547536FFD249C227908003E524F0E536B7
:0D0D130070FCE4F535D205907F97E520F0E7
:010D200022B0
:10163000C249305404D2578026C257305621D25561
:10164000C256E52E5403901B1D93FFE52454F0FE73
:10165000EF4EF524908003E524F0E4F536F537D21B
:0216600049221D
:10155C00C249305504D24D802EC24D304329D2544D
:10156C00C243C207907F97E520F0E52E5403901BF1
:10157C001D93FFE52454F0FEEF4EF524908003E517
:0A158C0024F0E4F536F537D24922C9
:03000B00020046AA
:10004600C0E0C0F0C083C082C0D075D000C000C080
:0D00560001C002C003C004C005C006C00701
:10006300901B42E004F0304211B208B209908000C4
:10007300E521F0B208B209E521F0901B42E05407F4
:1000830060030202D720490302014620550620548B
:100093000302013620540FE537700B901B44E064D4
:1000A300096003020146E5367071908000E0139207
:1000B30044E5377005750FFF801C302719A24430C3
:1000C3004101B3501130550830410B85370F80067D
:1000D30020410385370FC227A24492411217D70547
:1000E30037E53790003693F536E537640C70549056
:1000F3008003E524F0850F2F305514D243C255D227
:1001030007907F97E520F0304D3912155C8034D28B
:1001130056C25430572D12163080281536E536B4A2
:100123000121E537C39407401AD227908003E524C1
:10013300F08010E536600CD536095324F090800327
:10014300E524F0303D75C22E908004E525F09080C3
:10015300027401F0741DF07419F09080007474F04F
:10016300908001747FF0753D04908000748FF0904F
:1001730080017441F09080027419F0D53DEB753D18
:1001830004908001E4F09080027410F0D53DF29069
:1001930080007474F0908001747FF0908002740189
:1001A300F0908000E521F0908001E522F09080023C
:1001B300E523F0D22E908004E525F0901B44E00463
:1001C300F0E0640A60030202D7F00513E51370023E
:1001D3000514D24F30461AE538540C6014304011E0
:1001E300C216C215908001E522F0D216D215E5227F
:1001F300F0204603020289E5385403FFBF010820BB
:1002030056033043020538E5385403FFBF021DAFE0
:10021300171517EF7016AF101510EF700FAF0B1502
:100223000BEF7008304E1012155C0538E538540397
:10023300FFBF030E30560B303A05C242120F8B53E9
:1002430038FCE538540CFFBF040C2043033056063A
:1002530074042538F538E538540CFFBF081AAF3C51
:10026300153CEF7013AF391539EF700C304C141285
:10027300155C74042538F538E538540CFFBF0C06BB
:100283003056035338F3305106E513540F70357568
:100293003D00E50D6005433D01150DE5086005438F
:1002A3003D021508E50E6005433D04150EE50960A2
:1002B30005433D081509E52054F0453DF520907FA1
:1002C30097E520F0E535600655137002B205907F7F
:0402D30097E520F09B
:1002D700D007D006D005D004D003D002D001D0007B
:0B02E700D0D0D082D083D0F0D0E03225
:101A9E00040103000505000301000200FFFFFEFE26
:10086000D23B907F92E054FDF0E4907FE2F0F58679
:10087000907F9574C3F0907F9E74FBF0907F93748B
:1008800028F0E4907F94F0907F9C747DF0907F96A8
:100890007401F0907F9D74FFF0907F977430F0901A
:1008A0007FDD7409F0907FA1E04401F0907FB27485
:1008B00000F0A37446F0907FAFE04406F0758C061C
:1008C000E58954F84402F589538EF7D28CD2A97584
:1008D0002460908003E524F0AF3A121693D206907C
:1008E0007F97E520F0753840D24675230175217455
:1008F00075227F752503908000E521F0908001E549
:1009000022F0908002E523F0908004E525F09080AD
:1009100010E526F0901B477401F07D0C7F40121407
:1009200020E4FD7F701214207DD8E4FF1214207D96
:10093000407F10121420D24A7D0C7F201214207D9B
:100940001E7F501214207D1E7F30121420E4FD7F84
:04095000600214200D
:100727001214E4120C937F01121662753304E490DD
:100737001B48F0A3F0750C02E50C2410FD7FA012F6
:1007470017FB901B49E02FF0901B48E03400F005A1
:100757000CE50CC3942040E07D117FA01217FBEF3E
:10076700FE901B49E02400F0901B48E03EF07D100E
:100777007FA01217FB901B49E02FF0901B48E03435
:1007870000F0E0F47003A3E0F4702F7D137FA01254
:1007970017FB8F337D167FA01217FB8F0D7D1A7FF6
:1007A700A01217FB8F0E7D247FA01217FB8F0CE57D
:1007B7000C139238E50CA2E2924BE53324FB60154B
:1007C70024FB601624FE6017146021146023800048
:1007D70075301880257530308020753010801B7576
:1007E7003046D22D908004E525F0800E75302080AC
:1007F70009753034D23AD208D242E4F50CE50EC37B
:1008070094804003750C01E50C2450FFE50E25E0AC
:10081700FD121420E4F50CE50DC394804003750C1C
:1008270001E50C2460FFE50D25E0FD121420E4F539
:100837000EF50DA238922A908004E525F0121B14BC
:10084700901B40EEF0A3EFF0D204907F97E520F0E5
:090857001213D9901B5BEFF02293
:100B1E001213D98F15205303020BC6E4FD901B5BF5
:100B2E00E0FCC3951540027DFFE513547FFFBF0423
:100B3E0017ED600C901B43E0F4600DE004F08008AC
:100B4E00901B43E0600214F0E5135407707CED60D7
:100B5E0030ECC39515F53EE49400F53DE53EAE3D13
:100B6E007803C333CE33CED8F9F53E8E3D901B437A
:100B7E00E0FB7E00253EEE353D7039EB253EFD80D7
:100B8E0033ECFFE515C39FF53EE49400F53DE53EDD
:100B9E00AE3D7803C333CE33CED8F9F53E8E3D90BD
:100BAE001B43E0FFFBC3E53E9BE53D94005005C3B0
:100BBE00EF953EFD8D3A8012901B43E0600CE513DD
:100BCE0054077006E53A6002153AAF3A121693C210
:010BDE004FC7
:010BDF0022F3
:100BE00030593F907DC0E0F50CA3E0FFC4540FF5F1
:100BF00016E50CB4A509E516901A9E93B4FF0512EC
:100C00001901801CE516901A9E93FF907DC1E05457
:100C10000F6F6004EFB4FE05120D218003121B0F4D
:100C2000C25930502FE534702BC3E52D951DE52CAE
:100C3000951C5011E52DAE2C7805CEC313CE13D8DC
:100C4000F9F534800FE51DAE1C7805CEC313CE1325
:100C5000D8F9F534538EF8120A3D058E30480F123C
:100C60000954A24792475021C248C247801BE50A57
:100C70006017E51D2512FFE51C3511FED3EF94002A
:100C8000EE94105004D248150A304F062058031233
:030C90000B1E2216
:08000300907FEAE0F544D322EE
:0E1ABD00907F00E544F0907FB57401F0D322D5
:081AF100907FEAE0F543D322E7
:0E1ACB00907F00E543F0907FB57401F0D322C8
:10194E00C0E0C083C082D23F5391EF907FAB740151
:08195E00F0D082D083D0E0320A
:1019AD00C0E0C083C0825391EF907FAB7404F0D040
:0619BD0082D083D0E0326D
:1019C300C0E0C083C0825391EF907FAB7402F0D02C
:0619D30082D083D0E03257
:1019D900C0E0C083C0825391EF907FAB7410F0D008
:0619E90082D083D0E03241
:0111FD0032BF
:10196600C0E0C083C082D25A5391EF907FAB740817
:08197600F0D082D083D0E032F2
:10197E00C0E0C083C082D2595391EF907FAA740405
:08198E00F0D082D083D0E032DA
:100A3D00907FB8E020E114E5346008153479207812
:100A4D00208026E52D7005E52C7001227820E52DFE
:100A5D00C398E52C94005002A82DE8F9305070E5AC
:100A6D001DC398E51C940040E2907FE27450F07431
:100A7D0000907FE4F0747E907FE3F0907FE574202A
:100A8D0098702C7802C2AFF0F0F0F0F0F0F0F0F0CA
:100A9D00F0F0F0F0F0F0F0F0F0F0F0F0F0F0F0F049
:100AAD00F0F0F0F0F0F0F0D8DED2AF8008C2AFF089
:100ABD00F0D8FCD2AF907FE27400F0907FB9E929B5
:100ACD00F0C3E51D99F51DE51C9400F51C802F85DF
:100ADD0032848531857400907FE4F0747E907FE3DD
:100AED00F0907FE5C2AF0586E0A30586F00586E0B0
:100AFD00A30586F0D8F0D2AF907FB9E929F08584AF
:100B0D0032858531E52DC399F52DE52C9400F52C15
:010B1D0022B5
:0111FE0032BE
:10095400E53B24F97003020A0824076003020A3CF9
:10096400204803020A3CC2AFC22F908004E525F060
:100974007F05121B05C22E908004E525F0304A192C
:10098400303A0CC242901B47E0FF121A58801F9065
:100994001B47E0FF1218E6801530380A901B47E029
:1009A400FF1219EF8008901B47E0FF1218C9901B33
:1009B40048E0FEA3E0FF8E45F546901B45E0FCA30E
:1009C400E0FDEF2DFBEE3CCB2512F546EB3511F5A2
:1009D40045908006F0A3E546F0C39FF546E5459EA5
:1009E400F545908008F0A3E546F090800AECF0A36A
:1009F400EDF0D22E908004E525F0D22FE525F0D23B
:100A0400AF753B07908000E020E12DE512251DF530
:100A14001DE511351CF51CE50A6018E51D2512FFBE
:100A2400E51C3511FED3EF9400EE94105005150A21
:080A340002096AE4F53BD24718
:010A3C002297
:101A3000C3907FA57800E020E003D8FA2220E2FCE2
:051A400030E1F9D322A2
:10188600C2AF907FA57480F0907FA6EF54FEF01251
:101896001A30500D7400F0907FA6EDF0121A3050F9
:0218A60000221E
:10000E001218865009907FA6EBF0121A30C3907F1B
:10001E00A57440F05008907FA6E0FF907FA5E020E9
:05002E00E6FCD2AF2248
:1017FB00121886501B7480F0907FA6EF54FE4401A4
:10180B00F0121A30500A7420F0907FA6E0121A30B2
:04181B00D302001CD8
:051B14007E007F0022AD
:1019EF00908001E522C2E4F06403C2E4F0D2E4F097
:0619FF00DFF8E522F022F2
:10178E00EF2E601DD3121936908001E5220E6418DB
:10179E00F06403F06418F06403F0DFF2DEF0E5228B
:0517AE00F0C302193632
:101A0500908002E523D2E3F07805121AF9C2E3F0DB
:061A15001215CAC23C22BA
:1015CA00908001E5227D7D7C0B7B10C2AF6BF06CB5
:1015DA00F06BF06CF06BF06CF06BF06CF06BF06C25
:1015EA00F06BF06CF06BF06CF06BF06CF0DDDED24F
:0415FA00AFD23C220E
:10173F00EE2F6020D3121936908001E5220EC2E5FC
:10174F00F0C2E3F06403F0D2E3F06403F0DFF2DE03
:08175F00F0E522F0C302193687
:1018C900908001E522C2E5F0C2E3F06403F030E361
:0D18D90003C2E3F0D2E3F0DFF5E522F022D8
:10191C00907FD6E030E712E04401F07F147E001295
:0A192C001996907FD6E054FEF022D9
:1018A800907FD6E04480F0438701000000000022CA
:07125800907FD6E04408F08E
:03125F00E4F53D76
:04126200E054FBF069
:03126600E4F53D6F
:10126900E04408F0305B04E04402F07FDC7E0512C4
:101279001996907F92E030E3077FDC7E051219967C
:10128900907FAB74FFF0907FA9F0907FAAF0539103
:08129900EF907FD6E054F7F05E
:0312A100E4F53D34
:0512A400E04404F0220B
:0216C000A90778
:1016C200AE1EAF1F8F828E83A3E064037017AD013D
:1016D20019ED7001228F828E83E07C002FFDEC3E9B
:0916E200FEAF0580DF7E007F00F1
:0116EB0022DC
:0214A300AD0793
:1014A500E4FCAE1AAF1B8F828E83A3E06402702A20
:1014B500AB040CEBB50501228F828E83A3A3E0FA62
:1014C500A3E08A41F5426241E5416242E54262415B
:0E14D5002FFBE5413EFEAF0380CC7E007F0082
:0114E30022E6
:101996008E3E8F3FE53F153FAE3E7002153E4E60D0
:0719A600051218B880EE22C3
:1018B8007400F58690FDA57C05A3E582458370F943
:0118C80022FD
:03004300021200A6
:1012000002194E000219C3000219AD00021966004E
:101210000219D9000211FD000211FE000211FE00A8
:101220000211FE000211FE000211FE0002197E00F2
:101230000211FE000211FE000211FE000211FE006A
:101240000211FE000211FE000211FE000211FE005A
:081250000211FE000211FE0074
:03000000021AE5FC
:0C1AE500787FE4F6D8FD758146020512FA
:1010BB00EF8DF0A4A8F0CF8CF0A428CE8DF0A42E49
:0210CB00FE2203
:1010CD00EB9FF5F0EA9E42F0E99D42F0E89C45F079
:0110DD0022F0
:0C10DE00ECF0A3EDF0A3EEF0A3EFF02285
:1010EA00A8828583F0D083D08212110112110112D5
:1010FA001101121101E473E493A3C583C5F0C583FA
:10110A00C8C582C8F0A3C583C5F0C583C8C582C84F
:01111A0022B2
:00000001FF
