:061B0E00000000D8FB22DC
:051B1A00EFF8021B0EB4
:061B1400F0A83C021B0ECC
:10190200908000E521D2E16403121B146403121BD0
:1019120014DFF42043056403121B1454FC021B144D
:10113E00C240EE2F604D0ED3121957304B009080E7
:10114E0000E521204B05D2E0121B146403121B1480
:10115E002043086403121B14204B0554FC121B146D
:10116E00EFBE0105C3940440045CB40112C312190E
:10117E0057A9307840121B0ED9F9DFBBDEB922DF3A
:0A118E00C0DEBE908002E524F022CE
:1017C400EE2F60210E908000E521D2E0121B1464FC
:1017D40003121B142043056403121B1454FC121B34
:0617E40014DFE7DEE52240
:10174700A240923BC240121012EE2F60140E9080FE
:1017570000E5216403121B146403121B14DFF4DE7B
:0B176700F2121A3CC24AA23B92402240
:101A3C00E524908002D2E4F07828121B0EC2E4F068
:051A4C007828021B0ECA
:10101200D3121957908000E521D2E0F07817121B05
:101022000E203F25C2E1C2AFF0E524908002C2E06B
:10103200F0D2AF780C121B0ED2E0C2AFF09080005B
:10104200E521D2E0F0D2AF8023D211E522908010C8
:10105200F0E524908002D2E1F0780C121B0EC2E17E
:10106200F0C211E522908010F09080007812121BDD
:0A1072000EE521F0D24AC30219571F
:101A7900908000E5216403121B146403121B14DF18
:021A8900F42245
:0C1AEE00908003E525C2E6F0D2E6F0226D
:10195700E5264004D2E68002C2E6908004F0F52630
:081967004001227805021B0E6D
:100E8A00907DC1E054F0B4F006121198020F0CB430
:100E9A000005120DF4806BB4100512158F8063B42F
:100EAA002005121343805BB4300512180F8053B427
:100EBA00400512189D804BB45005121B368043B46E
:100ECA006005121A9D803BB470051215598033B41F
:100EDA008005120D59802BB49005120F138023B48C
:100EEA00A0051215F7801BB4B00512151F8013B4A4
:100EFA00C005121922800BB4D005121922800312E0
:090F0A000F99907FC97400F022D8
:051B1F00740602192408
:051B24007415021924F4
:101922007418C250753300901B4B85833185823207
:0B193200F0A37400F0F52C752D0122CD
:10187B00C250753300901B4B85833185823274A522
:10188B00F0A3E516F0540F240354FE03F52D752C2D
:02189B00002229
:101A9D00901B4D7462F5167402F0A37400F00218D9
:011AAD007BBD
:101A8B00121B29901B4D74E2F516EEF0A3EFF0023A
:021A9B00187BB6
:10119800A3E0A3B40303021391B40A0302138FB4A8
:1011A8000003021ABFB40103021391B4020302132D
:1011B80093B4040302179CB405030212A9B40603EE
:1011C8000212F6B40703021772B40805E0FF021A08
:1011D80066B4090BE0FFA3E0FD12141D021B1FB447
:0A11E8000B04E0021AAE02192222E5
:101A660012168E901B4D74F2F5167408F0A3EFF063
:031A760002187BD8
:101AAE00B40007A24B9240021B1FA24B925B021B7B
:011ABE001F08
:101ABF001216BFE0F511FEA3E0F512FF050B021B96
:011ACF001FF7
:10138F00050B050B1216BFE0FEF511A3E0FFF512DA
:10139F00C3E51D9420E51C9400500A204707E4B5CF
:1013AF000B03021922D250907DC2E0B403028003D6
:1013BF00B40A0F7C00907DC7E0FD14250BF50B12CE
:0713CF0010DE8E2C8F2D2291
:10179C007400F50BE51C451D601B30470F90800055
:1017AC0078007900E030E104D8FAD9F8121AEE7515
:0817BC001C00751D00021B1F3B
:1012A9001216BFE0FCA3E0FDA3E0F8A3E0F9A3E078
:1012B900FAA3E0FB901B4AECF0E526D2E1D2E0BCB0
:1012C9000306C2E0D2E18007BC0204C2E1D2E0F524
:1012D90026908004F0901B47EDF0901B48E8F0A39E
:0D12E900E9F0901B45EAF0A3EBF0021B1F9B
:10177200907DC6E0FEA3E0FF907DC3E0B4000D3093
:101782004B0512174780081217C48003121A26D27B
:0A17920010E522908010F0021B1FEA
:1012F600C210E522908010F0907DC4E0FF7E00A32E
:10130600A3A3E0FCA3E0FD1210DE907DC3E0B400D1
:1013160020304B08204A05C2401210127C07907DEF
:10132600C1E0907DC9540FB40802E0FC12113E8062
:0D133600092039031215C31217EA021B1F0C
:1016BF00907DC3E0B52E028022F52EB40006D249EC
:1016CF007D40800BC249B401047D2080027D107FD4
:0F16DF001012141D7DD87F0012141D907DC4229F
:100F9900A3E0A3C3B40002803CB401028011B402EF
:100FA900028033B403028008B40403021A8B22D3EB
:100FB900121007907DC6500CE584F8E0A3F608DF0F
:100FC900FA021B1FC2AFE0A30586F0A30586DFF670
:100FD900D2AF021B1FD3121007901B4D7516E85094
:100FE9000CE584F8E608F0A3DFFA02187BC2AF0526
:100FF90086E0A30586F0A3DFF6D2AF02187BE0FFF7
:09100900A3E0F584A3E0F58522C3
:1016EE00907F98E0C2E3F0C2E5F0F879C77B027A0A
:1016FE0008E933F9E8C2E45002D2E4F0D2E3F0C2D2
:0D170E00E3F0DAEDEFF9DBE7E8D2E5F022D9
:1013D600907F98E0C2E3F0C2E5F0FB79A77A08E9CE
:1013E60033F9EBC2E45002D2E4F0D2E3F0C2E3F008
:1013F600DAED7828000000D8FB7A087F00907F9B02
:10140600E0C372E2EF33FF907F98EBD2E3F0C2E3E2
:07141600F0DAEAD2E5F02252
:10141D00C2AF907F98E0D2E3F0908003E525D2E44F
:10142D00F0F525EFF9907F98E0F87B027A08E93323
:10143D00F9E8C2E45002D2E4F0C2E3F0D2E3F0DA0C
:10144D00EDEDF9DBE7908003E525C2E4F0F525D25B
:02145D00AF22BC
:10145F00C2AFE520907F97FA7809EAC2E6F0791ECD
:10146F00D9FEEAD2E6F0D3EF00007907D9FE33CAEE
:10147F004008C2E6F0CAD8F28006D2E6F0CAD8EA2F
:10148F00D2AF907F997A03E030E105D8FADAF8C34A
:01149F00222A
:1014E100908006E4F0A3740AF0908008E4F0A374FD
:1014F10009F090800AE4F0A304F0D236908004E56C
:1015010026F0D237E526F085130D908000E030E11A
:0E1511000AC3E513950DD3940A40EF021AEEBB
:10168E00907F96E020E0047E0180027E008E0DEFBA
:10169E006009907F96E054FEF0800B907F96E044B8
:1016AE0001F0A24B9240E50D70047F0180027F0095
:0116BE002209
:100DF400C244907DC5E0540CF50DE030E43CA24BB8
:100E0400925B907DC3E0F538A3E0F53DC23EA3E0DC
:100E140054036002D23EE53754F34404F537D24C10
:100E2400907DC5E030E603E4F50DE50D7043C24C5A
:100E3400E53754F34408F5378037A24B9240907D50
:100E4400C2E0F50CA3E0F510A3E0F517E53754FC78
:100E54004401F537D24EE50D700AC24EE53754FC15
:100E64004402F537304B0AAF13EF651360FB121AD7
:100E74003CE50DB4040312162AE50DB4080312165A
:060E84005CD244021B1FBA
:10158F00C244907DC2E030E014E537540C60205324
:10159F0037F3304C1A12165C43370C8012E5375470
:1015AF0003600C5337FC304E0612165C433703D2E0
:0415BF0044021B1FA8
:10134300C2AF907DC2E030E407E0A2E39258803759
:10135300C258C253907DC3E0901B5BF0907DC2E006
:1013630030E10BA3E0F53AE4901B43F08019907D44
:10137300C2E030E00CD253907DC4E0901B43F08078
:0C13830006901B437401F0D2AF021B1F48
:10180F00E4901B4DF030530204F0901B5BE0901BF3
:10181F004EF0A3E515F0A37480F0A3E53AF075162A
:04182F003502187BEB
:10189D00C2AF907DC2E0F50EA3E0F508A3E0F50F11
:1018AD00A3E0F509C251A3E030E002D251D2AF025C
:0218BD001B1FEF
:031B3600021B1F70
:10155900907DC2E02410547FF50DE030E715907DB1
:10156900C4E0FFAD0D121857901B4DEFF0751671C1
:1015790002187B907DC4E0FF907DC3E0FBAD0D12A6
:06158900000E121B1F22E0
:100D5900121B1F907DC2E0FFC454C0F516E4F534A0
:100D6900E516B44004D2058015E5167004C2058065
:100D79000DE516B4800575343F800375340FE537EA
:100D8900543F4516F537C204907DC2E030E402D2E3
:100D990004907F97E520F0907DC2E05403F516B4E6
:100DA900010312162AE516B4020312165CE516B4FD
:100DB9000303120BF0907DC2E0FFC4135403F51630
:100DC90064016005E516B4030B301708C21790805B
:100DD90010E522F0E516B40211A21750028001C3F2
:0B0DE9004008D217908010E522F02295
:100F1300C2AFE53754CF901B4DF0305604E0441078
:100F2300F0305507901B4DE04420F0305407901BE0
:100F33004DE04430F0A204E433901B4EF030420401
:100F4300E04402F0907F99E020E107901B4EE044DB
:100F530004F0301707901B4EE04408F0E50E6007DD
:100F6300901B4EE04410F0E5086007901B4EE044F0
:100F730020F0E50F6007901B4EE04440F0E5096068
:100F830007901B4EE04480F0901B4FE50AF0D2AF70
:060F930075169302187BA5
:10151F00907DC2E0F50DE4F516F50D907DC2E0FF6C
:10152F00E50DC39F501874C3250DF582E4347DF586
:10153F0083E0FF12145F50020516050D80DD901B2E
:0A154F004DE516F07516B102187B89
:1015F700121B1FC23A907DC2E030E002D23A907DC2
:10160700C2E030E314E52F5403901B3293FFE52526
:1016170054F0FEEF4EF52580035325F0908003E547
:0316270025F02289
:10107C001201000100000040970D01010100010266
:10108C00000109022000010100A000090400000277
:10109C00FF00000007058202400000070502024025
:1010AC000000040309040A035300420049004700EE
:1010BC0020035500530042002D00430041004D0019
:1010CC00200045006E00670069006E00650032006C
:0210DC00000012
:041B320001020408A0
:1004F200901B6612110D00000000C25AC238C2528F
:10050200C23C1208657E107F7C8E188F19751A10F6
:10051200751B8E751E10751FAEEE54E07003020639
:1005220056901B6AE4F0A37480F0A3EEF0A3EFF000
:10053200C374DC9FFF74109ECF2402CF3400FEE40C
:10054200FCFD901B62121101901B5C12110D000048
:100552000000901B62E0FCA3E0FDA3E0FEA3E0FF2D
:10056200901B5CE0F8A3E0F9A3E0FAA3E0FBC3125E
:1005720010F0503A901B5EE0FEA3E0FF901B6AE091
:10058200FCA3E02FF582EC3EF58374CDF0901B5C6A
:10059200E0FCA3E0FDA3E0FEA3E02401FFE43EFEB5
:1005A200E43DFDE43CFC901B5C12110180A4901B15
:1005B2005C12110D00000000901B62E0FCA3E0FD44
:1005C200A3E0FEA3E0FF901B5CE0F8A3E0F9A3E048
:1005D200FAA3E0FBC31210F05049901B5EE0FEA3A9
:1005E200E0FF901B6CE0FCA3E02FF582EC3EF5836C
:1005F200E0FD901B6AE0FAA3E02FF582EA3EF58364
:10060200EDF0901B5CE0FCA3E0FDA3E0FEA3E02480
:1006120001FFE43EFEE43DFDE43CFC901B5C121154
:10062200018095901B6AE0F518A3E0F519747C240B
:1006320080FF741034FFFE901B60F0A3EFF0C3E55F
:100642001B9FF51BE51A9EF51AC3E51F9FF51FE5D3
:100652001E9EF51ED2E843D820907F95E044C0F05C
:10066200907FAFE04401F0907FAEE0441DF0907FB8
:10067200ADE04404F0D2AF120707203C52203C0503
:10068200D25C121258901B6612110D000000007FFE
:10069200407E927D047C00901B66E0F8A3E0F9A303
:1006A200E0FAA3E0FBC31210F050CF203CCC901B29
:1006B20066E0FCA3E0FDA3E0FEA3E02401FFE43E2C
:1006C200FEE43DFDE43CFC901B6612110180C0E596
:1006D2008E54F84401F58E303C051202D2C23C30F1
:1006E2005A12C25A1218E1203807907FD6E020E74A
:1006F200F312193D120CA6120CA6120CA6120CA68D
:05070200120CA680D2DC
:1002D200907FE9E070030203B11470030204252445
:1002E200FE700302049424FB70030203AB14700338
:1002F2000203A514700302039914700302039F24DE
:100302000560030204E3907FEBE024FE60161460B4
:100312004224027078E518907FD4F0E519907FD5D9
:10032200F00204EA907FEAE0FF1214A0AA06A907ED
:100332007B018B3E8A3F8940EA49600DEE907FD473
:10034200F0EF907FD5F00204EA907FB4E04401F030
:100352000204EA907FEAE0FF12171BAA06A9077BB4
:10036200018B3E8A3F8940EA496018EE907FD4F0C3
:10037200EF907FD5F0E4907FB5F0907FB47402F0F7
:100382000204EA907FB4E04401F00204EA907FB4F0
:10039200E04401F00204EA121AE00204EA121B0627
:1003A2000204EA1200030204EA1211F20204EA90C1
:1003B2007FE8E0247F60241460312402705BA2385D
:1003C200E433FF25E0FFA252E4334F907F00F0E4D4
:1003D200A3F0907FB57402F00204EAE4907F00F08B
:1003E200A3F0907FB57402F00204EA907FECE0F48F
:1003F2005480FFC4540FFFE054072F25E024B4F5C6
:1004020082E4347FF583E05401907F00F0E4A3F0AE
:10041200907FB57402F00204EA907FB4E04401F0E8
:100422000204EA907FE8E024FE601D2402600302D9
:1004320004EA907FEAE0B40105C2380204EA907F40
:10044200B4E04401F00204EA907FEAE0703B907F5E
:10045200ECE0F45480FFC4540FFFE054072F25E072
:1004620024B4F582E4347FF583E4F0907FECE05429
:1004720080FF131313541FFFE054072F907FD7F010
:03048200E4F5415D
:10048500E04420F0805F907FB4E04401F080569016
:100495007FE8E024FE60182402704A907FEAE0B409
:1004A5000104D238803F907FB4E04401F08036905B
:1004B5007FEAE07020907FECE0F45480FFC4540F95
:1004C500FFE054072F25E024B4F582E4347FF5835B
:1004D5007401F08010907FB4E04401F08007907FB4
:0C04E500B4E04401F0907FB4E04402F069
:0104F10022E8
:03003300021B2E7F
:041B2E0053D8EF3267
:0D00360000110C080707070707070C12FF51
:10183300052F7E00E52F54032432F582EE341BF589
:1018430083E493FFE52554F0FEEF4EF525908003E6
:04185300E525F02275
:100BF000753403C248D22F908003E525F0E4F51642
:100C00007D64750AFFC217908010E522F012183338
:100C100085130DC3E513950DC39D40F7E516C394E9
:100C200070505B121833901B42E0F50D901B42E0B0
:100C3000C3950DC3948040F4152F7E00E52F540317
:100C40002432F582EE341BF583E493FFE52554F05E
:100C5000FEEF4EF525908003E525F0901B42E0C3A2
:100C6000950DC394F040F4121833AF160516EFC378
:100C7000940C40A8908000E030E0A1750A09532F41
:100C8000FED256C241C255C2547535FFD248C22F5A
:100C9000908003E525F0E53570FCE4F534D205904D
:050CA0007F97E520F044
:010CA500222C
:10162A00C248305404D2578026C257305621D25568
:10163A00C256E52F5403901B3293FFE52554F0FE62
:10164A00EF4EF525908003E525F0E4F535F536D221
:02165A00482224
:10165C00C248305504D24D8026C24D304121D2545F
:10166C00C241E52F5403901B3293FFE52554F0FE45
:10167C00EF4EF525908003E525F0E4F535F536D2EF
:02168C004822F2
:03000B00020046AA
:10004600C0E0C0F0C083C082C0D075D000C000C080
:0D00560001C002C003C004C005C006C00701
:10006300901B42E004F0304025305B22B208B20915
:10007300753E04153EE53ED394004008908000E5AC
:1000830021F080EFB208B209908000E521F0901BC7
:1000930042E0540760030202B7304619908000E043
:1000A30030E005750A098003750AFFC22F908003AB
:1000B300E525F0C24630486B205503305455205493
:1000C3000CE5367008901B44E064097056E5357002
:1000D3003E1218330536E53690003693F535E5368E
:1000E300640C703F908003E525F030550CD241C27B
:1000F30055304D2F12165C802AD256D22F90800392
:10010300E525F0D246C25430571912162A80141529
:10011300358010E535600CD535095325F090800303
:10012300E525F0303A75C236908004E526F09080DC
:10013300027401F0741DF07419F09080007474F06F
:10014300908001747FF0753E04908000748FF0906E
:1001530080017441F09080027419F0D53EEB753E36
:1001630004908001E4F09080027410F0D53EF29088
:1001730080007474F0908001747FF09080027401A9
:10018300F0908000E521F0908001E523F09080025B
:10019300E524F0D236908004E526F0901B44E00479
:1001A300F0E0640A60030202B7F00513E51370027E
:1001B3000514D24F30441AE537540C6014303E1105
:1001C300C21EC21D908001E523F0D21ED21DE5237D
:1001D300F0204403020269E5375403FFBF010820FE
:1001E30056033041020537E5375403FFBF021DAF05
:1001F300171517EF7016AF101510EF700FAF0C1522
:100203000CEF7008304E1012165C0537E5375403B7
:10021300FFBF030E30560B304B05C2401210125372
:1002230037FCE537540CFFBF040C2041033056065E
:1002330074042537F537E537540CFFBF081AAF3D73
:10024300153DEF7013AF381538EF700C304C1412A6
:10025300165C74042537F537E537540CFFBF0C06DD
:100263003056035337F3305106E513540F70357589
:100273003E00E50E6005433E01150EE508600543AB
:100283003E021508E50F6005433E04150FE50960BE
:1002930005433E081509E52054F0453EF520907FBF
:1002A30097E520F0E534600655137002B205907FA0
:0402B30097E520F0BB
:1002B700D007D006D005D004D003D002D001D0009B
:0B02C700D0D0D082D083D0F0D0E03245
:101AD000040103000505000301000200FFFFFEFEF4
:10086500D238907F92E054FDF0E4907FE2F0F58677
:10087500907F9574C3F0907F9E74FBF0907F937486
:1008850028F0E4907F94F0907F9C742DF0907F96F3
:100895007401F0907F9D74FFF0907F977430F09015
:1008A5007FDD7409F0907FA1E04401F0907FB27480
:1008B50000F0A37446F0907FAFE04406F0758C0617
:1008C500E58954F84402F589538EF7D28CD2A9757F
:1008D5002560908003E525F0AF3A1216EED206901A
:1008E5007F97E520F0753740D24475240175217452
:1008F50075237F752603908000E521F0908001E542
:1009050023F0908002E524F0908004E526F09080A5
:1009150010E522F0901B477401F07D1E7F401214F4
:100925001DE4FD7F7012141D7DD8E4FF12141D7D9A
:10093500407F1012141DD2497D0C7F2012141D7D9D
:100945001E7F5012141D7D1E7F3012141DE4FD7F85
:040955006002141D0B
:100707001214E1120BF07F0112168EE4F539C25C68
:10071700901B48F0A3F0750D02E50D2410FD7FA096
:10072700121857901B49E02FF0901B48E03400F057
:10073700050DE50DC3942040E07D117FA0121857E9
:10074700EFFE901B49E02400F0901B48E03EF07D4F
:10075700107FA0121857901B49E02FF0901B48E01C
:100767003400F0E0F47003A3E0F4702A7D157FA055
:100777001218578F397D167FA01218578F0E7D1AC2
:100787007FA01218578F0F7D247FA01218578F0D47
:10079700E50DA2E2923F753C0FE53914601614602F
:1007A7001E14602214602814602D8000753C237588
:1007B70030218026753080D20BD25CD24B801B75DE
:1007C7003043D24B8014753056D25CD243800B75C0
:1007D7003C237530628003753029305C08D2359030
:1007E7008004E526F0304B06D209D240D25B9080D8
:1007F70000E521F0E4F50DE50FC394804003750D86
:1008070001E50D2450FFE50F25E0FD12141DE4F569
:100817000DE50EC394804003750D01E50D2460FFBF
:10082700E50E25E0FD12141DE50D2470FFE50E25EC
:10083700E0FD12141DE4F50FF50ED232908004E5A9
:1008470026F0121B29901B40EEF0A3EFF0D2049084
:0D0857007F97E520F01213D6901B5BEFF0A9
:010864002271
:100B18001213D68F15205303020BC0E4FD901B5B04
:100B2800E0FCC3951540027DFFE513547FFFBF0429
:100B380017ED600C901B43E0F4600DE004F08008B2
:100B4800901B43E0600214F0E5135407707CED60DD
:100B580030ECC39515F53FE49400F53EE53FAE3E15
:100B68007803C333CE33CED8F9F53F8E3E901B437E
:100B7800E0FB7E00253FEE353E7039EB253FFD80DA
:100B880033ECFFE515C39FF53FE49400F53EE53FE0
:100B9800AE3E7803C333CE33CED8F9F53F8E3E90C0
:100BA8001B43E0FFFBC3E53F9BE53E94005005C3B4
:100BB800EF953FFD8D3A8012901B43E0600CE513E2
:100BC80054077006E53A6002153AAF3A1216EEE598
:100BD8003A600AD216908010E522F08008C216907A
:070BE8008010E522F0C24F6E
:010BEF0022E3
:100CA60030593F907DC0E0F50DA3E0FFC4540FF529
:100CB60016E50DB4A509E516901AD093B4FF0512F2
:100CC6001922801CE516901AD093FF907DC1E0543E
:100CD6000F6F6004EFB4FE05120E8A8003121B2408
:100CE600C25930502FE533702BC3E52D951DE52CE9
:100CF600951C5011E52DAE2C7805CEC313CE13D816
:100D0600F9F533800FE51DAE1C7805CEC313CE135F
:100D1600D8F9F533538EF8120959058E30470F125C
:100D26000A3AA24592455021C247C245801BE50BAF
:100D36006017E51D2512FFE51C3511FED3EF940063
:100D4600EE94205004D247150B304F06205803125C
:030D56000B182255
:08000300907FEAE0F545D322ED
:0E11F200907F00E545F0907FB57401F0D322A8
:081B0600907FEAE0F544D322D0
:0E1AE000907F00E544F0907FB57401F0D322B2
:10196F00C0E0C083C082D23C5391EF907FAB740133
:08197F00F0D082D083D0E032E9
:1019CE00C0E0C083C0825391EF907FAB7404F0D01F
:0619DE0082D083D0E0324C
:1019E400C0E0C083C0825391EF907FAB7402F0D00B
:0619F40082D083D0E03236
:1019FA00C0E0C083C0825391EF907FAB7410F0D0E7
:061A0A0082D083D0E0321F
:011B39003279
:10198700C0E0C083C082D25A5391EF907FAB7408F6
:08199700F0D082D083D0E032D1
:10199F00C0E0C083C082D2595391EF907FAA7404E4
:0819AF00F0D082D083D0E032B9
:10095900907FB8E020E114E53360081533792078F9
:10096900208026E52D7005E52C7001227820E52DE3
:10097900C398E52C94005002A82DE8F9305070E591
:100989001DC398E51C940040E2907FE27450F07416
:1009990000907FE4F0747E907FE3F0907FE574200F
:1009A90098702C7802C2AFF0F0F0F0F0F0F0F0F0AF
:1009B900F0F0F0F0F0F0F0F0F0F0F0F0F0F0F0F02E
:1009C900F0F0F0F0F0F0F0D8DED2AF8008C2AFF06E
:1009D900F0D8FCD2AF907FE27400F0907FB9E9299A
:1009E900F0C3E51D99F51DE51C9400F51C802F85C4
:1009F90032848531857400907FE4F0747E907FE3C2
:100A0900F0907FE5C2AF0586E0A30586F00586E094
:100A1900A30586F0D8F0D2AF907FB9E929F0858493
:100A290032858531E52DC399F52DE52C9400F52CFA
:010A3900229A
:011B3A003278
:100A3A00E53B24F97003020AE324076003020B175B
:100A4A00204703020B17C2AFC237908004E526F095
:100A5A007F05121B1AC236908004E526F030491928
:100A6A00C240304B0A901B47E0FF121A798014905B
:100A7A001B47E0FF121902800AC25B901B47E0FF86
:100A8A00121A10901B48E0FEA3E0FF8E46F547902D
:100A9A001B45E0FCA3E0FDEF2DFBEE3CCB2512F558
:100AAA0047EB3511F546908006F0A3E547F0C39F62
:100ABA00F547E5469EF546908008F0A3E547F09095
:100ACA00800AECF0A3EDF0D236908004E526F0D24D
:100ADA0037E526F0D2AF753B07908000E020E12D84
:100AEA00E512251DF51DE511351CF51CE50B6018F1
:100AFA00E51D2512FFE51C3511FED3EF9400EE9497
:0D0B0A00205005150B020A50E4F53BD245C2
:010B170022BB
:101A5100C3907FA57800E020E003D8FA2220E2FCC1
:051A610030E1F9D32281
:1018BF00C2AF907FA57480F0907FA6EF54FEF01218
:1018CF001A51500D7400F0907FA6EDF0121A51507E
:0218DF000022E5
:10000E001218BF5009907FA6EBF0121A51C3907FC1
:10001E00A57440F05008907FA6E0FF907FA5E020E9
:05002E00E6FCD2AF2248
:101857001218BF501B7480F0907FA6EF54FE44010E
:10186700F0121A51500A7420F0907FA6E0121A5114
:04187700D302001C7C
:051B29007E007F002298
:101A1000908001E523C2E4F06403C2E4F0D2E4F074
:061A2000DFF8E523F022CF
:1017EA00EF2E601DD3121957908001E5230E64185D
:1017FA00F06403F06418F06403F0DFF2DEF0E5232E
:05180A00F0C3021957B4
:101A2600908002E524D2E3F07805121B0EC2E3F0A3
:061A36001215C3C23922A3
:1015C300908001E5237D7D7C0B7B10C2AF6BF06CBB
:1015D300F06BF06CF06BF06CF06BF06CF06BF06C2C
:1015E300F06BF06CF06BF06CF06BF06CF0DDDED256
:0415F300AFD2392218
:10193D00907FD6E030E712E04401F07F147E001274
:0A194D0019B7907FD6E054FEF02297
:1018E100907FD6E04480F043870100000000002291
:07125800907FD6E04408F08E
:03125F00E4F53E75
:04126200E054FBF069
:03126600E4F53E6E
:10126900E04408F0305C04E04402F07FDC7E0512C3
:1012790019B7907F92E030E3077FDC7E051219B73A
:10128900907FAB74FFF0907FA9F0907FAAF0539103
:08129900EF907FD6E054F7F05E
:0312A100E4F53E33
:0512A400E04404F0220B
:02171B00A9071C
:10171D00AE1EAF1F8F828E83A3E064037017AD01E1
:10172D0019ED7001228F828E83E07C002FFDEC3E3F
:09173D00FEAF0580DF7E007F0095
:011746002280
:0214A000AD0796
:1014A200E4FCAE1AAF1B8F828E83A3E06402702A23
:1014B200AB040CEBB50501228F828E83A3A3E0FA65
:1014C200A3E08A42F5436242E5426243E543624257
:0E14D2002FFBE5423EFEAF0380CC7E007F0084
:0114E00022E9
:1019B7008E3F8F40E5401540AE3F7002153F4E60A9
:0719C700051218F180EE2269
:1018F1007400F58690FDA57C05A3E582458370F90A
:0119010022C3
:03004300021200A6
:1012000002196F000219E4000219CE0002198700CA
:101210000219FA00021B3900021B3A00021B3A00B5
:10122000021B3A00021B3A00021B3A0002199F00FF
:10123000021B3A00021B3A00021B3A00021B3A0052
:10124000021B3A00021B3A00021B3A00021B3A0042
:08125000021B3A00021B3A00E8
:03000000021AFAE7
:0C1AFA00787FE4F6D8FD7581470204F205
:1010DE00EF8DF0A4A8F0CF8CF0A428CE8DF0A42E26
:0210EE00FE22E0
:1010F000EB9FF5F0EA9E42F0E99D42F0E89C45F056
:0111000022CC
:0C110100ECF0A3EDF0A3EEF0A3EFF02261
:10110D00A8828583F0D083D082121124121124126B
:10111D001124121124E473E493A3C583C5F0C58390
:10112D00C8C582C8F0A3C583C5F0C583C8C582C82C
:01113D00228F
:00000001FF
