:0E1D7C0003060C09000102020303040405051E
:10060400E4F557F556F555F554C25CC23DC254C2E3
:10061400411207F27E0E7F648E3D8F3E75450E7546
:100624004676753B0E753C8075430E7544A8754A35
:100634000E754BD090E680E030E70E853B3F853C5D
:1006440040854341854442800C85433F8544408531
:100654003B41853C42EE54E0700302077575580037
:100664007559807E0E7F648E5A8F5BC374FE9FFF24
:10067400740E9ECF2402CF3400FEE48F538E52F5C5
:1006840051F550F54FF54EF54DF54CAF53AE52AD17
:1006940051AC50AB4FAA4EA94DA84CC3121B3450B9
:1006A4002AE559254FF582E558354EF58374CDF08A
:1006B400E4FAF9F8E54F2401F54FEA354EF54EE931
:1006C400354DF54DE8354CF54C80C0E4F54FF54E0D
:1006D400F54DF54CAF53AE52AD51AC50AB4FAA4EA5
:1006E400A94DA84CC3121B345035AE4EAF4FE55B39
:1006F4002FF582E55A3EF583E0FDE5592FF582E5B5
:10070400583EF583EDF0E4FAF9F8EF2401F54FEAE9
:100714003EF54EE9354DF54DE8354CF54C80B58543
:10072400583D85593E74642480FF740E34FFFEC323
:10073400E5469FF546E5459EF545C3E5409FF540F2
:10074400E53F9EF53FC3E5429FF542E5419EF541F5
:10075400C3E53C9FF53CE53B9EF53BC3E5449FF573
:1007640044E5439EF543C3E54B9FF54BE54A9EF5AF
:100774004AD2E843D82090E668E04409F090E65C69
:10078400E0443DF090E65EE04408F0D2AF120A384F
:1007940090E680E020E105D25D1218B190E680E099
:1007A40054F7F0538EF8C25C30410512034AC2413B
:1007B400305C29121DC85024C25C12000E203D1664
:1007C40090E682E030E704E020E1EF90E682E0305A
:1007D400E604E020E0E41218E0121DCA120DB8127B
:0D07E4000DB8120DB8120DB8120DB880BB83
:0107F10022E5
:10034A0090E6B9E070030204461470030204EF2435
:10035A00FE700302058424FB700302044014700338
:10036A0002043A14700302042E14700302043424A3
:10037A000560030205F0121DCC40030205FC90E65D
:10038A00BBE024FE603B14606224FD601F146046DB
:10039A0024066003020424E53D90E6B3F000000061
:1003AA00E53E90E6B4F00000000205FCE54590E663
:1003BA00B3F0000000E54690E6B4F0000000020544
:1003CA00FCE53F90E6B3F0000000E54090E6B4F0AB
:1003DA000000000205FCE54190E6B3F0000000E5EC
:1003EA004290E6B4F00000000205FC90E6BAE0FF95
:1003FA0012190CAA06A9077B01EA496013EE90E6D6
:10040A00B3F0000000EF90E6B4F00000000205FC33
:10041A0090E6A0E04401F00205FC90E6A0E0440169
:10042A00F00205FC121D170205FC121DA10205FCB3
:10043A001200030205FC121D050205FC121DCE4026
:10044A00030205FC90E6B8E0247F602B14603C248C
:10045A000260030204E5A23DE433FF25E0FFA25453
:10046A00E4334F90E740F0E4A3F090E68AF090E698
:10047A008B7402F00205FCE490E740F0A3F090E6EA
:10048A008AF090E68B7402F00205FC90E6BCE05418
:10049A007EFF7E00E0D3948040067C007D018004CC
:1004AA007C007D00EC4EFEED4F2480F582741D3EEB
:1004BA00F583E493FF3395E0FEEF24A1FFEE34E6E3
:1004CA008F82F583E0540190E740F0E4A3F090E6D0
:1004DA008AF090E68B7402F00205FC90E6A0E044F4
:1004EA0001F00205FC121DD040030205FC90E6B89B
:1004FA00E024FE601D240260030205FC90E6BAE0D7
:10050A00B40105C23D0205FC90E6A0E04401F002F8
:10051A0005FC90E6BAE0705990E6BCE0547EFF7E96
:10052A0000E0D3948040067C007D0180047C007D3D
:10053A0000EC4EFEED4F2480F582741D3EF583E4F7
:10054A0093FF3395E0FEEF24A1FFEE34E68F82F5A8
:10055A0083E054FEF090E6BCE05480FF131313547A
:10056A001FFFE0540F2F90E683F0E04420F00205CD
:10057A00FC90E6A0E04401F08078121DD2507390FE
:10058A00E6B8E024FE60202402706790E6BAE0B480
:10059A000104D23D805C90E6BAE06402605490E6C1
:1005AA00A0E04401F0804B90E6BCE0547EFF7E0060
:1005BA00E0D3948040067C007D0180047C007D00AD
:1005CA00EC4EFEED4F2480F582741D3EF583E493D4
:1005DA00FF3395E0FEEF24A1FFEE34E68F82F58328
:1005EA00E04401F0800C121DD4500790E6A0E044CC
:0905FA0001F090E6A0E04480F05D
:0106030022D4
:03003300021DC4E7
:041DC40053D8EF32CF
:101D5D00040103000505000301000200FFFFFEFE64
:1007F20090E600E054E74408F0D2DFD23D121356EF
:1008020090E61274E2F000000090E618740CF0001A
:10081200000090E680E030E71090E6207402F000DD
:100822000000E490E621F0800EE490E620F0000063
:100832000090E6217440F0000000E490E6CEF00063
:10084200000090E6CFF000000090E6D0F00000003B
:1008520090E6D1F000000090E61074A0F090E6114E
:10086200F0000000E490E68DF0000000F58690E6CE
:1008720001E04402F075B2FF75B4EF75B5FF75B6CD
:10088200FF75A0E0E4F5B17C00EC90E606F090E69E
:10089200077456F090E605E04406F0758C06E5898B
:1008A20054F84402F589538EF7D28CD2A97524608C
:1008B200908003E524F0AF18121B89D2068520B17F
:1008C200751440D24575230175217775227F7525F0
:1008D20003908000E521F0908001E522F0908002F3
:1008E200E523F0908004E525F0908010E526F09055
:1008F200E0917401F07D0C7F40121881E4FD7F705D
:100902001218817DD8E4FF1218817D407F101218E1
:1009120081D24A7D0C7F201218817D327F501218BD
:10092200817D1E7F301218817D327F6012188122F4
:100A38007F011219B3750E10E490E092F0A3F075DF
:100A48003002E5302410FD7FA0121A9590E093E063
:100A58002FF090E092E03400F00530E530C39420A8
:100A680040E07D107FA0121A9590E093E02FF0905F
:100A7800E092E03400F07D117FA0121A95EFFE900D
:100A8800E093E02400F090E092E03EF0E0F47003A0
:100A9800A3E0F470387D137FA0121A958F0E7D168F
:100AA8007FA0121A958F317D1A7FA0121A958F3266
:100AB8007D247FA0121A958F30E53013923AE530E5
:100AC800A2E2924CC41313540390E08EF0E50E2476
:100AD800F260078000750B188009750B34D23CC290
:100AE80008D243E4F530E532C39480400375300101
:100AF800E5302450FFE53225E0FD121881E4F53099
:100B0800E531C394804003753001E5302460FFE58A
:100B18003125E0FD121881E4F532F531A23A922A26
:0F0B2800908004E525F012185090E0A5EFF02220
:100C22001218508F38205503020CCAE4FD90E0A53B
:100C3200E0FCC3953840027DFFE536547FFFBF04D8
:100C420017ED600C90E08AE0F4600DE004F080089B
:100C520090E08AE0600214F0E5365407707CED60A3
:100C620030ECC39538F55DE49400F55CE55DAE5C6F
:100C72007803C333CE33CED8F9F55D8E5C90E08A2B
:100C8200E0FB7E00255DEE355C7039EB255DFD8075
:100C920033ECFFE538C39FF55DE49400F55CE55D58
:100CA200AE5C7803C333CE33CED8F9F55D8E5C905B
:100CB200E08AE0FFFBC3E55D9BE55C94005005C361
:100CC200EF955DFD8D18801290E08AE0600CE536AC
:100CD20054077006E51860021518AF18121B89C276
:010CE20051C0
:010CE30022EE
:100DB800305B3F90E780E0F530A3E0FFC4540FF5C7
:100DC80039E530B4A509E539901D5D93B4FF0512E6
:100DD8001C45801CE539901D5D93FF90E781E05428
:100DE8000F6F6004EFB4FE0512113D8003121DBFA2
:100DF800C25B30522D85080F850910C3E54995104F
:100E0800E548950F500685480F854910D3E510949D
:100E180000E50F94014006750F017510001212309D
:100E280080031212F830480F120932A24692465037
:100E380021C248C246801BE52E6017E5492535FFCB
:100E4800E5483534FED3EF9400EE94105004D248B0
:0C0E5800152E305106205A03120C2222E5
:021DC800D32224
:021DCA00D32222
:021DCC00D32220
:0800030090E6BAE0F55FD3229C
:101D050090E740E55FF0E490E68AF090E68B04F01A
:021D1500D322D7
:081DA10090E6BAE0F55ED322E2
:101D170090E740E55EF0E490E68AF090E68B04F009
:021D2700D322C5
:021DCE00D3221E
:021DD000D3221C
:021DD200D3221A
:021DD400D32218
:101BE500C0E0C083C082D2415391EF90E65D74019D
:081BF500F0D082D083D0E03271
:101C5D00C0E0C083C0825391EF90E65D7404F0D074
:061C6D0082D083D0E032BA
:101C7300C0E0C083C0825391EF90E65D7402F0D060
:061C830082D083D0E032A4
:1016DC00C0E0C083C08290E680E030E70E853B3FDF
:1016EC00853C40854341854442800C85433F85447D
:1016FC0040853B41853C425391EF90E65D7410F080
:07170C00D082D083D0E0324F
:101BFD00C0E0C083C082D25C5391EF90E65D740863
:081C0D00F0D082D083D0E03258
:10171300C0E0C083C08290E680E030E70E853B3FA7
:10172300853C40854341854442800C85433F854445
:1017330040853B41853C425391EF90E65D7420F038
:07174300D082D083D0E03218
:101C1500C0E0C083C082D25B5391EF90E65F740849
:081C2500F0D082D083D0E03240
:01005200327B
:100E64001201000200000040970D0102010001027E
:100E740000010A06000200000040010009022700E8
:100E8400010100A0000904000003FF0000000705A1
:100E94008102000200070501020002000705820228
:100EA4000002000009022700010100A0000904005B
:100EB4000003FF0000000705810240000007050150
:100EC40002400000070582024000000004030904F8
:100ED4000A03530042004900470020035500530011
:100EE400420032002D00430041004D002000450027
:0D0EF4006E00670069006E006500000000E0
:1018E00090E682E030E004E020E60B90E682E03013
:1018F000E119E030E71590E680E04401F07F147EC6
:0C1900000012162690E680E054FEF02253
:10000E0090E682E044C0F090E681F0438701000064
:04001E0000000022BC
:1018B100305D0990E680E0440AF0800790E680E020
:1018C1004408F07FDC7E0512162690E65D74FFF079
:0F18D10090E65FF05391EF90E680E054F7F0223D
:02190C00A90729
:10190E00AE4AAF4B8F828E83A3E064037017AD0196
:10191E0019ED7001228F828E83E07C002FFDEC3E4C
:09192E00FEAF0580DF7E007F00A2
:01193700228D
:101626008E5C8F5D90E600E05418700DE55CC31388
:10163600F55CE55D13F55D801590E600E05418FF56
:10164600BF100BE55D25E0F55DE55C33F55CE55D1A
:10165600155DAE5C7002155C4E600512002280EED0
:011666002261
:100022007400F58690FDA57C05A3E582458370F9F1
:0100320022AB
:0A1D9600AE47C3E5369EC39F40F838
:011DA0002220
:1016A400908006E4F0A3740AF0908008E4F0A37438
:1016B40009F090800AE4F0A304F0D22E908004E5AF
:1016C40025F0C22F7F0A121D96E525F0D22FE525BD
:0816D400F0121D96121D8A227E
:101A0100908000E521F0908001E522F0908003E5CF
:101A110024F0908002E523F0908003E524F090808B
:051A210004E525F022A0
:1019B300E5A020E5047E0180027E008E30EF600505
:1019C30053A0DF800743A020A23C9243E53070047C
:0719D3007F0180027F00226A
:100F0100C24590E785E0540CF530E030E42E90E7DF
:100F110083E0F516A3E0F51AC242A3E05403600290
:100F2100D242E51454F34404F514D24DE530704334
:100F3100C24DE51454F34408F514803790E782E07C
:100F4100F52FA3E0F533A3E0F53AE51454FC440191
:100F5100F514D24FE530700AC24FE51454FC440237
:100F6100F514A23C9243303C0AAF36EF653660FB84
:100F7100121CB5D232908010E526F0E530B404039E
:100F81001217ECE530B40803121781D245121DBACD
:010F9100223D
:10166700C245C232908010E526F090E782E030E074
:1016770014E514540C60205314F3304D1A121781DB
:1016870043140C8012E5145403600C5314FC304FC0
:0D16970006121781431403D245121DBA221A
:10150200C2AF90E782E030E407E0A2E3925A80376C
:10151200C25AC25590E783E090E0A5F090E782E0DE
:1015220030E10BA3E0F518E490E08AF0801990E72F
:1015320082E030E00CD25590E784E090E08AF080BF
:0D1542000690E08A7401F0D2AF121DBA22AB
:101A2600E490E097F030550204F090E0A5E090E0F5
:101A360098F0A3E538F0A37480F0A3E518F07539A3
:051A460035121BA9226E
:101AB900C2AF90E782E0F531A3E0F52CA3E0F5325F
:101AC900A3E0F52DC253A3E030E002D253D2AF1206
:031AD9001DBA2211
:101ADC0090E783E07019A3E0701590E786E0C3945B
:101AEC0001400CE0D394075006E0F517120F921248
:031AFC001DBA22EE
:10174A0090E782E02410547FF530E030E71690E706
:10175A0084E0FFAD30121A9590E097EFF075397179
:10176A00121BA92290E784E0FF90E783E0FBAD30EB
:07177A00121A70121DBA22C1
:10140800121DBA90E782E0FFC454C0F539E4F51123
:10141800E539B44004D2058015E5397004C2058069
:101428000DE539B4800575113F800375110FE5147A
:10143800543F4539F51490E782E05403F539B40177
:10144800031217ECE539B40203121781E539B40326
:0514580003121D6D22CE
:10129500C2AFE51454CF90E097F0305804E0441005
:1012A500F030570790E097E04420F030560790E083
:1012B50097E04430F090E0987401F0E5316004E087
:1012C5004410F0E52C600790E098E04420F0E5320A
:1012D500600790E098E04440F0E52D600790E098C5
:1012E500E04480F090E099E51BF0D2AF7539931298
:0312F5001BA92210
:0C004600E490E097F07539B1121BA9227C
:1015E300121DBAC23F90E782E030E002D23F90E79B
:1015F30082E054186023E50A5403901D7C93FFE5B1
:101603002454F0FEEF4EF52490E782E030E40DD24F
:101613003990E08FE537F080035324F0908003E5A1
:0316230024F0228E
:0D003600000A0605060BC8FF08044801007B
:101B4500305004050A8002150AE50A5403901D7CED
:101B550093FFE52454F0FEEF4EF524908003E52431
:021B6500F0226C
:0F1D6D00C249751706120F92751707120F9222AF
:1017EC00C249305604D2598026C259305821D2579A
:1017FC00C258E50A5403901D7C93FFE52454F0FE77
:10180C00EF4EF524908003E524F0E4F512F513D2A5
:02181C0049225F
:10178100C249305704D24E802BC24E304426D25625
:10179100C244C2078520B1E50A5403901D7C93FF22
:1017A100E52454F0FEEF4EF524908003E524F0E4A7
:0717B100F512F513D24922E5
:03000B000200569A
:10005600C0E0C0F0C083C082C0D075D000C000C070
:0D00660001C002C003C004C005C006C007F1
:1000730090E089E004F0304311B208B209908000A7
:10008300E521F0B208B209E521F090E089E05407D8
:100093006003020261054730496520570330564C1F
:1000A30020560CE513700890E08BE064097050E56E
:1000B300127035121B450513E51390003693F512A4
:1000C300E51364067039305711D244C257D20785FD
:1000D30020B1304E2A1217818025D258C256B25011
:1000E30030591C1217EC801715128013E512600F9C
:1000F300D5120C2039095324F0908003E524F03005
:100103003F129080007474F0755C10D55CFD908094
:1001130000E521F090E08BE004F0E0640A60030264
:100123000261F00536E53670020537D25130451AC3
:10013300E514540C6014304211C216C215908001AC
:10014300E522F0D216D215E522F02045030201F292
:10015300E5145403FFBF010820580330440205147B
:10016300E514540364027025AF3A153AEF701EAFDD
:10017300331533EF7017AF2F152FEF7010C2329076
:100183008010E526F0304F101217810514E5145442
:1001930003FFBF030E30580B303C05C2431211C698
:1001A3005314FCE514540CFFBF040C2044033058D3
:1001B3000674042514F514E514540CFFBF0822AF8C
:1001C3001A151AEF701BAF161516EF7014C2329082
:1001D3008010E526F0304D1412178174042514F5B0
:1001E30014E514540CFFBF0C063058035314F330BA
:1001F3005306E536540F7032755C00E531600543F4
:100203005C011531E52C6005435C02152CE5326079
:1002130005435C041532E52D6005435C08152DE5A7
:100223002054F0455CF5208520B1E5116006553674
:100233007002B2058520B130392420572120561E83
:10024300E51CB51B1990E08FE0FFC3E5379FD394FE
:1002530004400BC2395324F0908003E524F090E06E
:1002630089E054076404600302032F204703020359
:100273002FE51C651B700302032FAF1E151EEF60D5
:100283000302032F0515E515B4010A90003EE4931C
:10029300F51E02032CE515B4020990003FE493F523
:1002A3001E801AE515B40319E51CB4070990004034
:1002B300E493F51E8007900041E493F51EB250804D
:1002C30068E515B4061F851C1BA2389250D249E578
:1002D3001B64077057751B01751C01C256C257C2B8
:1002E30044D2588047E51564056019E51C6407701E
:1002F30028E51DD394045021E50A5403FF90E08EB2
:10030300E0B507152039095324F0908003E524F064
:1003130090003CE493F51E8013151DE51D60F175F7
:0C032300150190003EE493F51E121B45EE
:10032F00D007D006D005D004D003D002D001D00022
:0B033F00D0D0D082D083D0F0D0E032CC
:10093200E51924F970030209FB24076003020A3750
:10094200204803020A37C2AFD231908010E526F068
:10095200C22F908004E525F07F05121DB5C22E90AE
:100962008004E525F0304A19303C0CC24390E091F6
:10097200E0FF121D29801F90E091E0FF120CE4803D
:1009820015303A0A90E091E0FF121C89800890E04D
:1009920091E0FF121BC890E092E0FEA3E0FF8E60A0
:1009A200F561C231908010E526F0D230E526F09054
:1009B200E08CE0FCA3E0FDEF2DFBEE3CCB2535F512
:1009C20061EB3534F560908006F0A3E561F0C39FDA
:1009D200F561E5609EF560908008F0A3E561F09016
:1009E200800AECF0A3EDF0D22E908004E525F0D23F
:1009F2002FE525F0D2AF751907908000E020E13590
:100A0200E5352549F549E5343548F548E52E6018C0
:100A1200E5492535FFE5483534FED3EF9400EE94E1
:100A2200105005152E020948C230908010E526F0BC
:050A3200E4F519D246B5
:010A3700229C
:10196300EE2F6020D3121C2D908001E5220EC2E5DC
:10197300F0C2E3F06403F0D2E3F06403F0DFF2DEDD
:08198300F0E522F0C3021C2D67
:101BC800908001E522C2E5F0C2E3F06403F030E35F
:0D1BD80003C2E3F0D2E3F0DFF5E522F022D6
:101C8900908001E522C2E4F06403C2E4F0D2E4F0FA
:061C9900DFF8E522F02255
:101A4B00EF2E601DD3121C2D908001E5220E641821
:101A5B00F06403F06418F06403F0DFF2DEF0E522CB
:051A6B00F0C3021C2D78
:101C9F00908002E523D2E3F07805121DA9C2E3F08C
:061CAF001217B8C23E222C
:1017B800908001E5227D7D7C0B7B10C2AF6BF06CC5
:1017C800F06BF06CF06BF06CF06BF06CF06BF06C35
:1017D800F06BF06CF06BF06CF06BF06CF0DDDED25F
:0417E800AFD23E221C
:061DA900000000D8FB223F
:051DB500EFF8021DA97A
:061DAF00F07805021DA9F9
:100CE400908000E521C2E0121DAF6403121DAF64C1
:0B0CF40003121DAFDFEFD2E0021DAFC6
:1013B100C243EE2F604A0ED3121C2D303C009080A8
:1013C10000E521203C05C2E0121DAF6403121DAFF0
:1013D1006403121DAF203C05D2E0121DAFEFBE0128
:1013E10005C3940440045CB40112C3121C2DA90B63
:1013F1007840121DA9D9F9DFBEDEBC22DFC3DEC1F0
:07140100908002E523F022B8
:101AFF00EE2F601E0E908000E521C2E0121DAF6434
:101B0F0003121DAF6403121DAFD2E0121DAFDFEA47
:031B1F00DEE822DB
:10193800A2439240C2431211C6EE2F60140E90804B
:1019480000E5216403121DAF6403121DAFDFF4DE4E
:0B195800F2121CB5C23BA240924322D9
:101CB500E523908002D2E4F07828121DA9C2E4F051
:051CC5007828021DA9B2
:1011C600D3121C2D908000E521C2E1F07817121D84
:1011D600A9204C25D2E0C2AFF0E523908002C2E000
:1011E600F0D2AF780C121DA9D2E0C2AFF090800009
:1011F600E521C2E1F0D2AF8023D231E526908010FE
:10120600F0E523908002D2E1F0780C121DA9C2E12C
:10121600F0C231E526908010F09080007812121D01
:0A122600A9E521F0D23BC3021C2D04
:101D2900908000E5216403121DAF6403121DAFDF2B
:021D3900F42292
:0C1D8A00908003E524C2E6F0D2E6F022CF
:101C2D00E5254004D2E68002C2E6908004F0F52559
:081C3D004001227805021DA9F7
:10113D0090E781E054F0B4F0061214B20211BFB47E
:10114D000005120F01806BB410051216678063B491
:10115D002005121502805BB43005121A268053B497
:10116D004005121AB9804BB45005121ADC8043B4F5
:10117D006005121D3B803BB4700512174A8033B4D5
:10118D008005121408802BB490051212958023B49B
:10119D00A0051215E3801BB4B0051200468013B4F0
:1011AD00C005121C45800BB4D005121C45800312DE
:0911BD000B3790E68D7400F0225E
:051DBA007406021C4745
:051DBF007415021C4731
:101C45007418C25290E09585830C85820DF0A374BB
:081C550000F0F50875090122F9
:101BA900C25290E09585830C85820D74A5F0A3E55A
:0F1BB90039F0540F240354FE03F5097508002278
:101D3B0090E0977462F5397402F0A37400F0021B03
:011D4B00A9EE
:101CDF007E007F0090E09774E2F539EEF0A3EFF00D
:031CEF00021BA92C
:1014B200A3E0A3B4030302159EB40A0302159CB46D
:1014C2000003021D4CB4010302159EB4020302156F
:1014D200A0B4040302198BB4050302154FB406032A
:1014E20002145DB4070302181EB40805E0FF021CD3
:1014F200F2B4090BE0FFA3E0FD121881021DBA222B
:101CF2001219B390E09774F2F5397408F0A3EFF07B
:031D0200021BA918
:101D4C001219DAE0F534FEA3E0F535FF052E021D7D
:011D5C00BACC
:10159C00052E052E1219DAE0FEF534A3E0FFF53521
:1015AC00C3E5499420E5489400500A204807E4B567
:1015BC002E03021C45D25290E782E0B40302800352
:1015CC00B40A0F7C0090E787E0FD14252EF52E124F
:0715DC001B228E088F09227B
:10198B007400F52EE5484549601B30480F908000E8
:10199B0078007900E030E104D8FAD9F8121D8A7585
:0819AB004800754900021DBA55
:10154F001219DAE0FCA3E0FDA3E0F8A3E0F9A3E0B1
:10155F00FAA3E0FB90E094ECF0E525D2E1D2E0BCF9
:10156F000306C2E0D2E18007BC0204C2E1D2E0F57B
:10157F0025908004F090E091EDF090E092E8F0A3D8
:0D158F00E9F090E08CEAF0A3EBF0021DBA49
:10181E0090E786E0FEA3E0FF90E783E0B4000D3092
:10182E003C051219388010121AFF800B303A05123F
:10183E001C9F8003121963D230E526908010F002AF
:02184E001DBAC1
:10145D00C230E526908010F090E784E0FF7E00A377
:10146D00A3A3E0FCA3E0FD121B2290E783E0B400F0
:10147D0020303C08203B05C2431211C67C0790E783
:10148D0081E090E789540FB40802E0FC1213B1809B
:10149D0011303A0B203E031217B8121A4B8003126B
:0514AD001963021DBAE5
:1019DA0090E783E0B40009204A19D24A7D40800783
:1019EA00304A10C24A7D207F101218817DD87F00AC
:0719FA0012188190E784221E
:100B3700A3E0A3C3B40002804DB401028022B40233
:100B4700028044B403028019B40403021CDFB40515
:100B5700028067B40603020BE8B40703020BF12215
:100B6700D3120BB690E786500CE584F8E0A3F6089D
:100B7700DFFA021DBAC2AFE0A30586F0A30586DF40
:100B8700F6D2AF021DBAD3120BB690E0977539E8CB
:100B9700500CE584F8E608F0A3DFFA021BA9C2AF00
:100BA7000586E0A30586F0A3DFF6D2AF021BA9E016
:100BB700FFA3E0F584A3E0F58522E0900BD2F09047
:100BC7000BDFF090E784E0FFC2AFE5A090E097F07D
:100BD7005F90E785FFE04FF5A0D2AF7539E1021BC3
:100BE700A9121A011216A4021DBAE0B40402801F4A
:100BF7005403C2AFF50A247CF582E4341DF583E47F
:100C070093F8E52454F048F524908003F0D2AF9090
:0B0C1700E097E50AF07539E1021BA927
:101CCA00C390E6787800E020E003D8FA2220E2FC0C
:051CDA0030E1F9D32206
:101B6700C2AF90E6787480F090E679EF54FEF012F9
:101B77001CCA500D7400F090E679EDF0121CCA50A3
:021B870000223A
:101A7000121B67500990E679EBF0121CCAC390E67E
:101A8000787440F0500890E679E0FF90E678E02026
:051A9000E6FCD2AF22CC
:101A9500121B67501B7480F090E679EF54FE4401E9
:101AA500F0121CCA500A7420F090E679E0121CCAA4
:041AB500D3021A7EC0
:101B8900C2A3C2A779C77B027A08E933F9C2A25076
:101B990002D2A2D2A3C2A3DAF1EFF9DBEBD2A722D8
:10185000C2A3C2A779A77A08E933F9C2A25002D27B
:10186000A2D2A3C2A3DAF17828000000D8FB7A083C
:101870007F00C372A4EF33FFD2A3C2A3DAF4D2A7CE
:011880002245
:10188100C2AFD2A0E520D2E4F5B1F520EFF97B0299
:101891007A08E933F9C2A15002D2A1C2A0D2A0DADA
:1018A100F1EDF9DBEBE520C2E4F520F5B1D2AF2291
:1012F80090E6A2E020E108E5097005E50870012202
:101308007820E509C398E50894005002A809E8F98F
:10131800850D84850C8574C0F59B74E7F59A90E675
:101328007BC2AF0586E0A30586F00586E0A30586A7
:10133800F0D8F0D2AF90E68FE929F085840D858545
:0E1348000CE509C399F509E5089400F50822A3
:10123000000000E5BB20E70122304B1590E6D0E02E
:10124000700E90E6D1E07008C24B90E6487402F050
:1012500022E5107005E50F700122C3E510251090FE
:10126000E6D1F0000000E50F350F90E6D0F07404F1
:10127000F5BBC3E5499510F549E548950FF548C319
:10128000E5099510F509E508950FF5087006E509DB
:051290007002D24B22A8
:010CFF0032C2
:101022006080E00008013F010101010701000300A7
:1010320000001000FFFEFEFFFFFFFFFF000900009F
:10104200002D123F0803013F0101010701020401C3
:1010520000000000FFFDFFFFFFFFFFFF0909121262
:10106200002D363F0E03013F010136070100020148
:1010720000001100FFFEFEFEFFFFFFFF000912123B
:10108200002D123F0803013F010101070102000187
:1010920000000000FFFDFFFFFFFFFFFF0909121222
:0E10A200002D363F47E080800000FF06E4117D
:1013560090E60174CAF090E6F574FFF090E080E044
:1013660090E6F3F090E081E090E6C3F090E082E052
:1013760090E6C1F090E083E090E6C2F090E085E070
:1013860090E6C0F090E086E090E6F4F075AF077462
:10139600E0F59A7400F59B759DE4E4F59EFF90E6F2
:0A13A6007BE090E67CF00FBF80F4BE
:0113B000221A
:100F9200C247E517B40618E51B600302101F751B54
:100FA200062039795324F0908003E524F0806EE521
:100FB2001B606A6517606685171CE5176407600584
:100FC200E51BB4060C751C07D250C238751D34805F
:100FD20026A2509238E517D3951B400EE517951BB4
:100FE20075F00CA4F51DC250800DC3E51B95177555
:100FF200F00CA4F51DD250E4F51B90003D93F51EB4
:10100200E4F515E50A5403901D7C93FFE52454F0A2
:10101200FEEF4EF524908003E524F0C249D2472228
:03004300020D00AB
:03005300020D009B
:100D0000021BE500021C7300021C5D00021BFD00BB
:100D10000216DC000217130002005200020052000B
:100D2000020CFF000200520002005200021C1500DB
:100D30000200520002005200020052000200520063
:100D40000200520002005200020052000200520053
:100D50000200520002005200020052000200520043
:100D60000200520002005200020052000200520033
:100D70000200520002005200020052000200520023
:100D80000200520002005200020052000200520013
:100D90000200520002005200020052000200520003
:100DA00002005200020052000200520002005200F3
:080DB000020052000200520093
:030000000210B13A
:0C10B100787FE4F6D8FD7581610210F82C
:101B2200EF8DF0A4A8F0CF8CF0A428CE8DF0A42ED7
:021B3200FE2291
:101B3400EB9FF5F0EA9E42F0E99D42F0E89C45F007
:011B4400227E
:1010BD00020604E493A3F8E493A34003F68001F23F
:1010CD0008DFF48029E493A3F85407240CC8C33334
:1010DD00C4540F4420C8834004F456800146F6DF03
:1010ED00E4800B0102040810204080901022E47E61
:1010FD00019360BCA3FF543F30E509541FFEE493F8
:10110D00A360010ECF54C025E060A840B8E493A3BE
:10111D00FAE493A3F8E493A3C8C582C8CAC583CAE9
:10112D00F0A3C8C582C8CAC583CADFE9DEE780BEA1
:0110B000003F
:00000001FF
